:0400000040EF0EF0CF
:100800000054656D702E20416465637561646100FC
:100810004D676E204572726F722054656D7000488E
:10082000756D2E204164656375616461004D676E6E
:10083000204572726F722048756D00432054656DBB
:0F084000702E00202048756D2E002E25640000BC
:100850001EC036F01FC037F020C038F021C039F07C
:1008600022C03AF023C03BF024C03CF025C03DF04C
:100870003DBE3DEF04F040EF04F0010E41EF04F007
:10088000000E346E356A34503510D8B44AEF04F097
:100890004CEF04F05CEF04F03D1E3C1E3B1E3A1E84
:1008A000391E381E371E366C000E37223822392288
:1008B0003A223B223C223D22000165BF62EF04F058
:1008C00064EF04F065EF04F0669365BF72EF04F027
:1008D000655106E16405D8B070EF04F072EF04F0E2
:1008E00078EF04F0000E316E010E306E7CEF04F0F4
:1008F00064C030F065C031F062C032F063C033F0E4
:1009000034503510D8A487EF04F089EF04F090EF4D
:1009100004F066A58EEF04F090EF04F093EF04F07E
:100920003206D8A03306000E3F6E1F0E3E6E000E3C
:10093000956F17EF05F03E06D8A03F06760E3E24D1
:10094000D96E000E3F20DA6E36C001F037C002F0DB
:1009500038C003F039C004F03AC005F03BC006F0DF
:100960003CC007F03DC008F00A0E096E000E0A6E8A
:10097000000E0B6E000E0C6E000E0D6E000E0E6E55
:10098000000E0F6E000E106E75EC09F001C026F01F
:1009900002C027F003C028F004C029F005C02AF0E7
:1009A00006C02BF007C02CF008C02DF026C013F0B5
:1009B00028C014F0E1EC0DF01350300FDF6E30065C
:1009C000D8A031063206D8A0330636C001F037C0B1
:1009D00002F038C003F039C004F03AC005F03BC063
:1009E00006F03CC007F03DC008F00A0E096E000E8C
:1009F0000A6E000E0B6E000E0C6E000E0D6E000ED9
:100A00000E6E000E0F6E000E106EB1EC08F001C0FD
:100A100036F002C037F003C038F004C039F005C02A
:100A20003AF006C03BF007C03CF008C03DF03FBEC6
:100A300022EF05F03F5008E13E04D8A022EF05F078
:100A400024EF05F055EF05F0365037103810391007
:100A50003A103B103C103D10D8A431EF05F033EFB5
:100A600005F09BEF04F031BE40EF05F0315006E198
:100A70003004D8B03EEF05F040EF05F09BEF04F0F6
:100A800033BE4BEF05F0335008E13204D8A04BEFF2
:100A900005F04DEF05F055EF05F0000166B353EF9B
:100AA00005F055EF05F09BEF04F034503510D8A455
:100AB0005CEF05F05EEF05F066EF05F0000166A55E
:100AC00064EF05F066EF05F084EF05F03E06D8A070
:100AD0003F0634503510D8A470EF05F072EF05F0E2
:100AE00078EF05F0000E2F6E2B0E2E6E7CEF05F0CA
:100AF000000E2F6E2D0E2E6E760E3E24D96E000E39
:100B00003F20DA6E2EC0DFFF1CC011F01DC012F0B6
:100B1000760E3E24136E000E3F20146E32C015F088
:100B200033C016F00AEC0BF011C01CF012C01DF01F
:100B30001200720ED36E0F0EC16EFBEC0EF0E6ECDF
:100B40000EF076EC0EF0FEEC0EF0F8EC0EF0F2EC9F
:100B50000EF0EBEC0EF000016DBFBAEF05F06D5139
:100B600007E1020E6C5DD8B0B8EF05F0BAEF05F002
:100B7000D3EF05F0A40E156E000E166EA20E176EC2
:100B8000000E186EA70E196E000E1A6EA60E1B6EC2
:100B9000000E1C6E6DEC0BF0000E00016D6F020E6E
:100BA0006C6FFEEF05F07551D8A4D9EF05F0DBEFBF
:100BB00005F0FCEF05F0A40E076E000E086E0CECBD
:100BC0000CF007C06AF008C06BF0A20E076E000EB2
:100BD000086E0CEC0CF007C068F008C069F0D00E8D
:100BE0000001A725706F716BFF0E7123D00EA62533
:100BF0006E6F6F6BFF0E6F23010E756F7505D8A4B6
:100C000004EF06F006EF06F0ABEF05F0A00E036E62
:100C1000000E046E21EC0EF0A00E036E000E046EAA
:100C2000A10E056E000E066E6AC007F06BC008F0DC
:100C300068C009F069C00AF070C00BF071C00CF018
:100C40006EC00DF06FC00EF027EC0AF0A10E016E21
:100C5000000E026E68C003F069C004F06EC005F0BB
:100C60006FC006F09CEC0DF0A00E016E000E026E3F
:100C70006AC003F06BC004F070C005F071C006F0EC
:100C800079EC0DF0960E586E000E596E4B0E5A6EA2
:100C9000080E5B6EA1C05CF05D6A00EC0DF0000E0A
:100CA000056E960E066E000E076E000E01EC0EF03D
:100CB000960E586E000E596E4A0E5A6E080E5B6EF6
:100CC000000E5D6E000E5C6E00EC0DF0250E29EC42
:100CD0000DF0960E586E000E596E430E5A6E080EA9
:100CE0005B6E00EC0DF0960E036E000E046E78EC59
:100CF0000CF0960E586E000E596E4B0E5A6E080E82
:100D00005B6EA0C05CF05D6A00EC0DF0000E056E3D
:100D1000960E066E000E076E020E01EC0EF0960E99
:100D2000586E000E596E4A0E5A6E080E5B6E000E1B
:100D30005D6E000E5C6E00EC0DF0DF0E29EC0DF028
:100D4000960E586E000E596E3B0E5A6E080E5B6E74
:100D500000EC0DF0960E036E000E046E78EC0CF0B5
:100D6000060E5F6E130E5E6EAE0EE82EFED75E2E82
:100D7000FCD75F2EFAD7ABEF05F000EF00F0F00ED6
:100D8000936EF00E8A6E8150F00B0001746FF00EBE
:100D90007419D8A4CEEF06F0D0EF06F0C3EF06F03A
:100DA0008150F00B746FF00E7419D8A4DAEF06F0CE
:100DB000DCEF06F0C3EF06F04E0E016EEB0EE82EF0
:100DC000FED7012EFCD700F0F00E8A6E8150F00B9A
:100DD0000001746FF00E7419D8B4F1EF06F0F3EF60
:100DE00006F0E6EF06F08150F00B746FF00E741908
:100DF000D8B4FDEF06F0FFEF06F0E6EF06F04E0E7A
:100E0000016EEB0EE82EFED7012EFCD700F08150CC
:100E1000F00B0001746FFE0E8A6E8150F00B746F40
:100E200074C072F0F00E7419D8B419EF07F01BEF0C
:100E300007F02DEF07F0000E736F22EF07F08150DF
:100E4000F00B726FF00E7219D8A429EF07F02BEF98
:100E500007F01FEF07F091EF07F0FD0E8A6E81504B
:100E6000F00B746F74C072F0F00E7419D8B43BEFCD
:100E700007F03DEF07F04FEF07F0010E736F44EFFF
:100E800007F08150F00B726FF00E7219D8A44BEF7F
:100E900007F04DEF07F041EF07F091EF07F0FB0E81
:100EA0008A6E8150F00B746F74C072F0F00E74197A
:100EB000D8B45DEF07F05FEF07F071EF07F0020EB7
:100EC000736F66EF07F08150F00B726FF00E7219BE
:100ED000D8A46DEF07F06FEF07F063EF07F091EF25
:100EE00007F0F70E8A6E8150F00B746F74C072F0C9
:100EF000F00E7419D8B47FEF07F081EF07F00BEF15
:100F000007F0030E736F88EF07F08150F00B726FDC
:100F1000F00E7219D8A48FEF07F091EF07F085EF6C
:100F200007F0E00E7419D8A498EF07F09AEF07F0D5
:100F3000A5EF07F07351040DA80EF324D96E000E2F
:100F4000F420DA6EDF50D6EF07F0D00E7419D8A473
:100F5000ACEF07F0AEEF07F0B9EF07F07351040DF7
:100F6000A90EF324D96E000EF420DA6EDF50D6EF0E
:100F700007F0B00E7419D8A4C0EF07F0C2EF07F065
:100F8000CDEF07F07351040DAA0EF324D96E000EB5
:100F9000F420DA6EDF50D6EF07F07351040DAB0E7C
:100FA000F324D96E000EF420DA6EDF50120042C036
:100FB000D9FF43C0DAFFDECFF6FFDDCFF7FF080031
:100FC000F550250AD8A4E7EF07F0E9EF07F095EF11
:100FD00008F042C0D9FF43C0DAFFDE2A000EDD224E
:100FE000000E0001636F000E626F62C066F063C0A6
:100FF00067F06469656942C0D9FF43C0DAFFDECF9C
:10100000F6FFDDCFF7FF0800F550640AD8B40BEF08
:1010100008F00DEF08F01FEF08F042C0D9FF43C001
:10102000DAFFDECFF6FFDDCFF7FF0800F550690AE3
:10103000D8A41DEF08F01FEF08F05FEF08F042C0E2
:10104000D9FF43C0DAFFDE2A000EDD2244C0D9FFFB
:1010500045C0DAFFDFCF46F0020EDE26DFCF47F0D5
:10106000000EDD2246C0D9FF47C0DAFFDECF48F0D0
:10107000DDCF49F0000E49BEFF0E4A6E4B6E4C6E3E
:101080004D6E4E6E4F6E40C01CF041C01DF048C00A
:101090001EF049C01FF04AC020F04BC021F04CC0E8
:1010A00022F04DC023F04EC024F04FC025F028ECB4
:1010B00004F01CC040F01DC041F0B0EF08F042C089
:1010C000D9FF43C0DAFFDECFF6FFDDCFF7FF080020
:1010D000F550250AD8A46FEF08F071EF08F088EFFB
:1010E00008F042C0D9FF43C0DAFFDE2A000EDD223D
:1010F000000E026E250E016E40C003F041C004F0E8
:10110000A5EC0AF0000E416E010E406EB0EF08F043
:1011100042C0D9FF43C0DAFFDE2A000EDD22000EF6
:10112000416E000E406EB0EF08F042C0D9FF43C0E0
:10113000DAFFDECFF6FFDDCFF7FF0800F550016ED6
:10114000026A40C003F041C004F0A5EC0AF042C0BE
:10115000D9FF43C0DAFFDE2A000EDD2282EF08F05D
:101160001200000E126E10BEBAEF08F0B8EF08F0D1
:10117000CCEF08F0101E0F1E0E1E0D1E0C1E0B1EB7
:101180000A1E096C000E0A220B220C220D220E22CE
:101190000F221022010E126E08BED3EF08F0D1EF1D
:1011A00008F0E5EF08F0081E071E061E051E041EC7
:1011B000031E021E016C000E0222032204220522DD
:1011C000062207220822010E121A20EE13F0070E43
:1011D000DE6AE806FDE209500A100B100C100D1033
:1011E0000E100F101010D8B4F8EF08F0FAEF08F056
:1011F0004CEF09F0010E116E08EF09F0D890093696
:101200000A360B360C360D360E360F361036112ACE
:1012100010AE0DEF09F00FEF09F0FEEF08F0D890D7
:1012200013361436153616361736183619361A365A
:101230000950015C0A5002580B5003580C500458D6
:101240000D5005580E5006580F50075810500858AA
:10125000D8A02DEF09F02FEF09F040EF09F0095069
:10126000015E0A50025A0B50035A0C50045A0D509A
:10127000055A0E50065A0F50075A1050085A13803C
:10128000D89010320F320E320D320C320B320A323D
:101290000932112E0FEF09F01250D8B452EF09F0B5
:1012A00054EF09F064EF09F01A1E191E181E171EDC
:1012B000161E151E141E136C000E14221522162263
:1012C0001722182219221A2213C001F014C002F0AA
:1012D00015C003F016C004F017C005F018C006F0E2
:1012E00019C007F01AC008F01200000E126E08BEF6
:1012F0007EEF09F07CEF09F090EF09F0081E071E61
:10130000061E051E041E031E021E016C000E022294
:10131000032204220522062207220822010E126E51
:1013200010BE97EF09F095EF09F0A7EF09F0101E36
:101330000F1E0E1E0D1E0C1E0B1E0A1E096C000E2B
:101340000A220B220C220D220E220F2210220950FB
:101350000A100B100C100D100E100F101010D8B436
:10136000B4EF09F0B6EF09F0FEEF09F0010E116ECF
:10137000C4EF09F0D89009360A360B360C360D3614
:101380000E360F361036112A10AEC9EF09F0CBEF2A
:1013900009F0BAEF09F00950015C0A5002580B50ED
:1013A00003580C5004580D5005580E5006580F5055
:1013B000075810500858D8A0E0EF09F0E2EF09F004
:1013C000F2EF09F00950015E0A50025A0B50035A1D
:1013D0000C50045A0D50055A0E50065A0F50075A19
:1013E0001050085AD89010320F320E320D320C3293
:1013F0000B320A320932112ECBEF09F01250D8B459
:1014000004EF0AF006EF0AF016EF0AF0081E071EB6
:10141000061E051E041E031E021E016C000E022283
:1014200003220422052206220722082201C001F01D
:1014300002C002F003C003F004C004F005C005F0D0
:1014400006C006F007C007F008C008F01200010E41
:10145000146E010E156E0B50075C0F6E0C50085881
:10146000106E03C0D9FF04C0DAFFDF50116E126A9C
:101470000F50115C1250800A136E1050800A1358DE
:10148000D8A045EF0AF047EF0AF063EF0AF003C077
:10149000D9FF04C0DAFFDF500F6E106A0B5007242B
:1014A000116E0C500820126E0F50115C1250800A01
:1014B000136E1050800A1358D8B061EF0AF063EF32
:1014C0000AF065EF0AF0000E146E0D50095C0F6E05
:1014D0000E500A58106E05C0D9FF06C0DAFFDF5063
:1014E000116E126A0F50115C1250800A136E105068
:1014F000800A1358D8A07FEF0AF081EF0AF09DEF21
:101500000AF005C0D9FF06C0DAFFDF500F6E106A7F
:101510000D500924116E0E500A20126E0F50115CEE
:101520001250800A136E1050800A1358D8B09BEFE7
:101530000AF09DEF0AF09FEF0AF0000E156E15C03D
:1015400001F01450D5EC0CF0120003500410D8B484
:10155000ACEF0AF0AEEF0AF0B7EF0AF00350041058
:10156000D8A4B5EF0AF0B7EF0AF0BCEF0AF00150CB
:1015700000EC0FF009EF0BF020EE04F00350D92639
:101580000450DA22DE50DE10D8B4C9EF0AF0CBEFF7
:101590000AF0E6EF0AF020EE04F00350D9260450DA
:1015A000DA2210EE02F00350E1260450E222DE506F
:1015B000E65CE650800A096EDE50800A0958D8B011
:1015C000E4EF0AF0E6EF0AF009EF0BF020EE02F08C
:1015D0000350D9260450DA22DECF05F0DDCF06F025
:1015E00003C0D9FF04C0DAFFDECF07F0DDCF08F07B
:1015F00005500724D96E06500820DA6E01C0DFFFBF
:1016000020EE02F00350D9260450DA22DE2A000E22
:10161000DD221200000166A110EF0BF012EF0BF0BB
:101620001CEF0BF013C00AF014C00BF011C00CF04B
:1016300012C00DF0BFEC0DF016BE21EF0BF023EF42
:101640000BF029EF0BF015C01AF016C01BF02DEFB0
:101650000BF0000E1B6E000E1A6E000E196E000EBF
:10166000186E3FEF0BF0000E026E200E016E11C0DF
:1016700003F012C004F0A5EC0AF0184A192A1A5017
:10168000185C1950800A176E1B50800A1758D8A092
:101690004CEF0BF04EEF0BF033EF0BF0000166B1A7
:1016A00054EF0BF056EF0BF060EF0BF013C00AF0A5
:1016B00014C00BF011C00CF012C00DF0BFEC0DF017
:1016C00013C001F014C002F05BEC0EF01A500124BC
:1016D000116E1B500220126E1200010E0A6E080ECF
:1016E0000B6E15C00CF016C00DF0000E0F6E020E42
:1016F0000E6ECAEC0BF0020E1E6E040E1D6EBA0EBC
:10170000E82EFED71D2EFCD71E2EFAD700D0100EC5
:101710000A6E080E0B6E19C00CF01AC00DF0000E08
:101720000F6E010E0E6ECAEC0BF0020E1E6E040E52
:101730001D6EBA0EE82EFED71D2EFCD71E2EFAD730
:1017400000D01F0E0A6E080E0B6E17C00CF018C0EA
:101750000DF0000E0F6E020E0E6ECAEC0BF0020EB4
:101760001E6E040E1D6EBA0EE82EFED71D2EFCD77F
:101770001E2EFAD700D02D0E0A6E080E0B6E1BC05F
:101780000CF01CC00DF0000E0F6E010E0E6ECAECB8
:101790000BF01200A6EC0EF0000E056E0AC006F06B
:1017A0000BC007F0000E01EC0EF0C00E51EC0DF076
:1017B000000E136E000E126EEEEF0BF0BFEC06F093
:1017C000146E145029EC0DF012500C24D96E1350E5
:1017D0000D20DA6E14C0DFFF124A132A0E50125C7D
:1017E0001350800A106E0F50800A1058D8A0FBEFDB
:1017F0000BF0FDEF0BF0DEEF0BF0020E116E040E9E
:10180000106EBA0EE82EFED7102EFCD7112EFAD786
:1018100000D0A6EC0EF01200000E0B6E000E0A6E49
:10182000000E0D6E000E0C6E07C0D9FF08C0DAFF67
:10183000DF50096ED00E09240E6E0F6AFF0E0F22C4
:1018400020EE01F00750D9260850DA22DF50096E49
:10185000D00E09240A6E0B6AFF0E0B220EC001F097
:101860000FC002F0000E046E0A0E036EBBEC0EF009
:1018700001C00EF002C00FF00A500E240C6E0B5087
:101880000F200D6E0CC007F00DC008F0120052C002
:1018900056F053C057F0000E0001616F000E606FEC
:1018A00065EF0CF050C040F051C041F0560E426E52
:1018B000000E436E54C044F055C045F0D7EC07F01D
:1018C0004050000160274150612356C0F6FF57C0C9
:1018D000F7FF0800F5500009D8A471EF0CF073EF82
:1018E0000CF052EF0CF060C050F061C051F01200EB
:1018F0008EEF0CF003C0F6FF04C0F7FFF86A070E86
:10190000F76403D00800F55005D0F6CFE1FFF7CF1C
:10191000E2FFE75029EC0DF0034A042A03C0F6FF6A
:1019200004C0F7FFF86A070EF76403D00800F5500B
:1019300005D0F6CFE1FFF7CFE2FFE7500009D8A4CA
:10194000A4EF0CF0A6EF0CF07AEF0CF01200000EF2
:10195000026E000E016E80A0B0EF0CF0B2EF0CF042
:10196000ABEF0CF0140EE82EFED780A0BAEF0CF00F
:10197000BCEF0CF0C0EF0CF0D8800236C3EF0CF0D7
:1019800002500224026E80B0C8EF0CF0CAEF0CF0D7
:10199000C3EF0CF0012A070E0164D1EF0CF0D3EF76
:1019A0000CF0ABEF0CF002501200026EEBEC0EF0FC
:1019B0000250D8A4DEEF0CF0E0EF0CF0EBEF0CF0EF
:1019C0000150D8A4E6EF0CF0E8EF0CF0EBEF0CF0D0
:1019D0008D80FFEF0CF00250D8B4F1EF0CF0F3EF74
:1019E0000CF0FBEF0CF00150D8A4F9EF0CF0FBEF7A
:1019F0000CF0FEEF0CF08D82FFEF0CF08D841200E6
:101A00005C0E0001B86F000EB96F58C0BAF059C033
:101A1000BBF0000EBD6F000EBC6F000EBF6F000E5E
:101A2000BE6FBA0E506E000E516E5AC052F05BC0BF
:101A300053F0B80E546E000E556E47EC0CF00001DA
:101A4000BC515824D96EBD515920DA6E000EDF6E9C
:101A50001200026E02C001F0F00E01168C500F0B46
:101A600001108C6E8C808C8200F08C92030E016EC3
:101A7000980EE82EFED7012EFCD702C001F0013AE5
:101A8000F00E01168C500F0B01108C6E8C8200F042
:101A90008C92080E016ECA0EE82EFED7012EFCD7DE
:101AA0001200026E02C001F0F00E01168C500F0BF6
:101AB00001108C6E8C908C8200F08C92030E016E63
:101AC000980EE82EFED7012EFCD702C001F0013A95
:101AD000F00E01168C500F0B01108C6E8C8200F0F2
:101AE0008C92080E016ECA0EE82EFED7012EFCD78E
:101AF000120001C0D9FF02C0DAFFDF50076E086A8A
:101B000005500324096E065004200A6E0750095C34
:101B10000A50800A0B6E0850800A0B58D8B093EF19
:101B20000DF095EF0DF099EF0DF0EFEC0EF09BEF4F
:101B30000DF0F2EC0EF012000550035C076E06503B
:101B40000458086E01C0D9FF02C0DAFFDF50096EE9
:101B50000A6A0750095C0A50800A0B6E0850800A16
:101B60000B58D8B0B6EF0DF0B8EF0DF0BCEF0DF09C
:101B7000F5EC0EF0BEEF0DF0F8EC0EF01200000EDA
:101B8000106E000E0F6ED0EF0DF00EC001F0026A65
:101B90000CC003F00DC004F0A5EC0AF00F4A102AA7
:101BA0000F500A24D96E10500B20DA6EDF500E6EE3
:101BB0000E50D8A4DEEF0DF0E0EF0DF0C5EF0DF004
:101BC000120014BEEEEF0DF0145006E11304D8B06D
:101BD000ECEF0DF0EEEF0DF0FCEF0DF013C015F093
:101BE00014C016F0151E161E154A162A15C013F03D
:101BF00016C014F000EF0EF013C013F014C014F070
:101C00001200086E020E086008EF0EF00AEF0EF0E8
:101C100013EF0EF005500F0B8009096E095051ECBF
:101C20000DF01AEF0EF005500F0BC009096E0950A8
:101C300051EC0DF006C003F007C004F078EC0CF096
:101C40001200CEEC0EF090EC0EF0A7EC0CF0056E4E
:101C5000A7EC0CF0A7EC0CF0066EA7EC0CF0A7ECD0
:101C60000CF003C0D9FF04C0DAFF06C0DFFF20EE8E
:101C700001F00350D9260450DA2205C0DFFF12001C
:101C8000BC0EF66E1D0EF76E000EF86E00EEA8F09C
:101C900010EE10F00900F5CFEEFFE550E150FAE14B
:101CA00000EE60F0480EEE6AE806FDE1000EF86E08
:101CB000000199EF05F001C003F002C004F063EFEA
:101CC0000EF0014A022A01C0D9FF02C0DAFFDF503C
:101CD000D8A46DEF0EF06FEF0EF061EF0EF0035031
:101CE000015C016E04500258026E1200000E956EE7
:101CF000270E036EF50EE82EFED7032EFCD700F05C
:101D0000020E51EC0DF0280E51EC0DF0010E51ECCD
:101D10000DF00C0E51EC0DF0060E51EC0DF0120012
:101D200080B095EF0EF097EF0EF090EF0EF080A0E0
:101D30009CEF0EF09EEF0EF097EF0EF080B0A3EF49
:101D40000EF0A5EF0EF09EEF0EF01200010E51EC1A
:101D50000DF0080E036ECA0EE82EFED7032EFCD738
:101D6000800E51EC0DF0030E036E980EE82EFED798
:101D7000032EFCD7120001500302F3CF05F0F4CF7D
:101D800006F001500402F350062602500302F350FD
:101D9000062605C001F006C002F01200929089905C
:101DA0002F0E016EC00EE82EFED7012EFCD78980C3
:101DB0000D0EE82EFED700F0928012003132332F44
:101DC0003435362A3738392D2A30232B000E946EBD
:101DD000000E966E12008D928D908D9412008B8461
:101DE0008B8C12008B948B9C12008B808B82120048
:101DF0008B908B921200000E956E1200F19E1200D5
:021E00001200CE
:020000040020DA
:08000000FFFFFFFFFFFFFFFF00
:020000040030CA
:0E00000000091F1EFF8181FF0FC00FE00F409F
:00000001FF
