:040000007FEF0DF091
:100800000054656D702E20416465637561646100FC
:1008100048756D2E204164656375616461004320F5
:1008200054656D702E00202048756D2E002E2564B5
:1008300000001EC036F01FC037F020C038F021C0C5
:1008400039F022C03AF023C03BF024C03CF025C070
:100850003DF03DBE2EEF04F031EF04F0010E32EF1B
:1008600004F0000E346E356A34503510D8B43BEFC6
:1008700004F03DEF04F04DEF04F03D1E3C1E3B1E26
:100880003A1E391E381E371E366C000E37223822AB
:1008900039223A223B223C223D22000165BF53EF20
:1008A00004F055EF04F056EF04F0669365BF63EF74
:1008B00004F0655106E16405D8B061EF04F063EF20
:1008C00004F069EF04F0000E316E010E306E6DEF32
:1008D00004F064C030F065C031F062C032F063C033
:1008E00033F034503510D8A478EF04F07AEF04F0E8
:1008F00081EF04F066A57FEF04F081EF04F084EF50
:1009000004F03206D8A03306000E3F6E1F0E3E6E76
:10091000000E8A6F08EF05F03E06D8A03F066B0E6A
:100920003E24D96E000E3F20DA6E36C001F037C08B
:1009300002F038C003F039C004F03AC005F03BC003
:1009400006F03CC007F03DC008F00A0E096E000E2C
:100950000A6E000E0B6E000E0C6E000E0D6E000E79
:100960000E6E000E0F6E000E106E4EEC09F001C000
:1009700026F002C027F003C028F004C029F005C00B
:100980002AF006C02BF007C02CF008C02DF026C0BE
:1009900013F028C014F020EC0DF01350300FDF6E70
:1009A0003006D8A031063206D8A0330636C001F092
:1009B00037C002F038C003F039C004F03AC005F087
:1009C0003BC006F03CC007F03DC008F00A0E096EBF
:1009D000000E0A6E000E0B6E000E0C6E000E0D6EF9
:1009E000000E0E6E000E0F6E000E106E8AEC08F0F8
:1009F00001C036F002C037F003C038F004C039F04F
:100A000005C03AF006C03BF007C03CF008C03DF01E
:100A10003FBE13EF05F03F5008E13E04D8A013EFAE
:100A200005F015EF05F046EF05F036503710381099
:100A300039103A103B103C103D10D8A422EF05F0BD
:100A400024EF05F08CEF04F031BE31EF05F03150AA
:100A500006E13004D8B02FEF05F031EF05F08CEF50
:100A600004F033BE3CEF05F0335008E13204D8A067
:100A70003CEF05F03EEF05F046EF05F0000166B3F0
:100A800044EF05F046EF05F08CEF04F034503510DC
:100A9000D8A44DEF05F04FEF05F057EF05F000013A
:100AA00066A555EF05F057EF05F075EF05F03E062A
:100AB000D8A03F0634503510D8A461EF05F063EF9D
:100AC00005F069EF05F0000E2F6E2B0E2E6E6DEF08
:100AD00005F0000E2F6E2D0E2E6E6B0E3E24D96E7D
:100AE000000E3F20DA6E2EC0DFFF1CC011F01DC0CB
:100AF00012F06B0E3E24136E000E3F20146E32C0B7
:100B000015F033C016F0EFEC0AF011C01CF012C063
:100B10001DF01200F00E936EF00E8A6E8150F00BF5
:100B200000016A6FF00E6A19D8A499EF05F09BEFE7
:100B300005F08EEF05F08150F00B6A6FF00E6A1928
:100B4000D8A4A5EF05F0A7EF05F08EEF05F04E0E47
:100B5000016EEB0EE82EFED7012EFCD700F0F00E52
:100B60008A6E8150F00B00016A6FF00E6A19D8B4DA
:100B7000BCEF05F0BEEF05F0B1EF05F08150F00BD2
:100B80006A6FF00E6A19D8B4C8EF05F0CAEF05F025
:100B9000B1EF05F04E0E016EEB0EE82EFED7012EE2
:100BA000FCD700F08150F00B00016A6FFE0E8A6ED8
:100BB0008150F00B6A6F6AC068F0F00E6A19D8B401
:100BC000E4EF05F0E6EF05F0F8EF05F0000E696FD1
:100BD000EDEF05F08150F00B686FF00E6819D8A4A6
:100BE000F4EF05F0F6EF05F0EAEF05F05CEF06F044
:100BF000FD0E8A6E8150F00B6A6F6AC068F0F00ECD
:100C00006A19D8B406EF06F008EF06F01AEF06F0FE
:100C1000010E696F0FEF06F08150F00B686FF00E58
:100C20006819D8A416EF06F018EF06F00CEF06F0DE
:100C30005CEF06F0FB0E8A6E8150F00B6A6F6AC0A3
:100C400068F0F00E6A19D8B428EF06F02AEF06F023
:100C50003CEF06F0020E696F31EF06F08150F00BA9
:100C6000686FF00E6819D8A438EF06F03AEF06F076
:100C70002EEF06F05CEF06F0F70E8A6E8150F00B57
:100C80006A6F6AC068F0F00E6A19D8B44AEF06F0CD
:100C90004CEF06F0D6EF05F0030E696F53EF06F048
:100CA0008150F00B686FF00E6819D8A45AEF06F067
:100CB0005CEF06F050EF06F0E00E6A19D8A463EF7F
:100CC00006F065EF06F070EF06F06951040D8B0E2B
:100CD000F324D96E000EF420DA6EDF50A1EF06F097
:100CE000D00E6A19D8A477EF06F079EF06F084EFFA
:100CF00006F06951040D8C0EF324D96E000EF42019
:100D0000DA6EDF50A1EF06F0B00E6A19D8A48BEFAF
:100D100006F08DEF06F098EF06F06951040D8D0E88
:100D2000F324D96E000EF420DA6EDF50A1EF06F046
:100D30006951040D8E0EF324D96E000EF420DA6E84
:100D4000DF501200000E966E000E956E000E000130
:100D5000C76F000EC26F000EC16F000EC46F000E91
:100D6000C36F000EC66F000EC56F720ED36E0F0EEE
:100D7000C16EF19EB5EC0DF02DEC0EF00001C2BF7E
:100D8000CDEF06F0C25107E1020EC15DD8B0CBEF46
:100D900006F0CDEF06F0F4EF06F0010E0A6E080E35
:100DA0000B6EBD0E0C6E000E0D6E52EC0BF0020EB3
:100DB0005F6E040E5E6EBA0EE82EFED75E2EFCD776
:100DC0005F2EFAD700D0100E0A6E080E0B6EBF0E03
:100DD0000C6E000E0D6E52EC0BF0000E0001C26F97
:100DE000020EC16F13EF07F0C751D8A4FAEF06F057
:100DF000FCEF06F010EF07F0BD0E076E000E086E58
:100E000091EC0BF007C0C3F008C0C4F0BF0E076E32
:100E1000000E086E91EC0BF007C0C5F008C0C6F0DC
:100E2000010E0001C76FC705D8A419EF07F01BEF2B
:100E300007F0BEEF06F0C80E036E000E046E60EC05
:100E40000DF0C80E036E000E046EC90E056E000E86
:100E5000066EC3C007F0C4C008F0C5C009F0C6C024
:100E60000AF000EC0AF0B30E586E000E596E2E0E0A
:100E70005A6E080E5B6EC9C05CF05D6A85EC0CF0C2
:100E8000000E056EB30E066E000E076E000E40ECEF
:100E90000DF0B30E586E000E596E2D0E5A6E080EE0
:100EA0005B6E000E5D6E000E5C6E85EC0CF0250E28
:100EB000AEEC0CF0B30E586E000E596E260E5A6E44
:100EC000080E5B6E85EC0CF0B30E036E000E046E24
:100ED000FDEC0BF0B30E586E000E596E2E0E5A6ECE
:100EE000080E5B6EC8C05CF05D6A85EC0CF0000E0D
:100EF000056EB30E066E000E076E020E40EC0DF08E
:100F0000B30E586E000E596E2D0E5A6E080E5B6EA3
:100F1000000E5D6E000E5C6E85EC0CF0DF0EAEEC2C
:100F20000CF0B30E586E000E596E1E0E5A6E080E5F
:100F30005B6E85EC0CF0B30E036E000E046EFDECE0
:100F40000BF0060E5F6E130E5E6EAE0EE82EFED731
:100F50005E2EFCD75F2EFAD7BEEF06F000EF00F052
:100F600042C0D9FF43C0DAFFDECFF6FFDDCFF7FF87
:100F70000800F550250AD8A4C0EF07F0C2EF07F02B
:100F80006EEF08F042C0D9FF43C0DAFFDE2A000E40
:100F9000DD22000E0001636F000E626F62C066F01A
:100FA00063C067F06469656942C0D9FF43C0DAFF76
:100FB000DECFF6FFDDCFF7FF0800F550640AD8B4A6
:100FC000E4EF07F0E6EF07F0F8EF07F042C0D9FFD3
:100FD00043C0DAFFDECFF6FFDDCFF7FF0800F550A4
:100FE000690AD8A4F6EF07F0F8EF07F038EF08F039
:100FF00042C0D9FF43C0DAFFDE2A000EDD2244C022
:10100000D9FF45C0DAFFDFCF46F0020EDE26DFCF84
:1010100047F0000EDD2246C0D9FF47C0DAFFDECF21
:1010200048F0DDCF49F0000E49BEFF0E4A6E4B6E10
:101030004C6E4D6E4E6E4F6E40C01CF041C01DF0A8
:1010400048C01EF049C01FF04AC020F04BC021F03C
:101050004CC022F04DC023F04EC024F04FC025F00C
:1010600019EC04F01CC040F01DC041F089EF08F0FD
:1010700042C0D9FF43C0DAFFDECFF6FFDDCFF7FF76
:101080000800F550250AD8A448EF08F04AEF08F008
:1010900061EF08F042C0D9FF43C0DAFFDE2A000E3C
:1010A000DD22000E026E250E016E40C003F041C02D
:1010B00004F08AEC0AF0000E416E010E406E89EFDA
:1010C00008F042C0D9FF43C0DAFFDE2A000EDD225D
:1010D000000E416E000E406E89EF08F042C0D9FF4D
:1010E00043C0DAFFDECFF6FFDDCFF7FF0800F55093
:1010F000016E026A40C003F041C004F08AEC0AF0BD
:1011000042C0D9FF43C0DAFFDE2A000EDD225BEFCA
:1011100008F01200000E126E10BE93EF08F091EF6F
:1011200008F0A5EF08F0101E0F1E0E1E0D1E0C1E5F
:101130000B1E0A1E096C000E0A220B220C220D2225
:101140000E220F221022010E126E08BEACEF08F024
:10115000AAEF08F0BEEF08F0081E071E061E051EC7
:10116000041E031E021E016C000E02220322042232
:101170000522062207220822010E121A20EE13F081
:10118000070EDE6AE806FDE209500A100B100C108B
:101190000D100E100F101010D8B4D1EF08F0D3EFCF
:1011A00008F025EF09F0010E116EE1EF08F0D8907C
:1011B00009360A360B360C360D360E360F3610361B
:1011C000112A10AEE6EF08F0E8EF08F0D7EF08F0CC
:1011D000D890133614361536163617361836193693
:1011E0001A360950015C0A5002580B5003580C5033
:1011F00004580D5005580E5006580F5007581050FF
:101200000858D8A006EF09F008EF09F019EF09F027
:101210000950015E0A50025A0B50035A0C50045AEE
:101220000D50055A0E50065A0F50075A1050085AC2
:101230001380D89010320F320E320D320C320B3236
:101240000A320932112EE8EF08F01250D8B42BEF11
:1012500009F02DEF09F03DEF09F01A1E191E181EB6
:10126000171E161E151E141E136C000E14221522B6
:1012700016221722182219221A2213C001F014C0B4
:1012800002F015C003F016C004F017C005F018C036
:1012900006F019C007F01AC008F01200000E126E16
:1012A00008BE57EF09F055EF09F069EF09F0081E85
:1012B000071E061E051E041E031E021E016C000EE4
:1012C0000222032204220522062207220822010EFE
:1012D000126E10BE70EF09F06EEF09F080EF09F0AA
:1012E000101E0F1E0E1E0D1E0C1E0B1E0A1E096C5C
:1012F000000E0A220B220C220D220E220F22102297
:1013000009500A100B100C100D100E100F101010B9
:10131000D8B48DEF09F08FEF09F0D7EF09F0010E87
:10132000116E9DEF09F0D89009360A360B360C364F
:101330000D360E360F361036112A10AEA2EF09F018
:10134000A4EF09F093EF09F00950015C0A5002582C
:101350000B5003580C5004580D5005580E500658A9
:101360000F50075810500858D8A0B9EF09F0BBEF3C
:1013700009F0CBEF09F00950015E0A50025A0B50F8
:10138000035A0C50045A0D50055A0E50065A0F506D
:10139000075A1050085AD89010320F320E320D32C0
:1013A0000C320B320A320932112EA4EF09F012501E
:1013B000D8B4DDEF09F0DFEF09F0EFEF09F0081E18
:1013C000071E061E051E041E031E021E016C000ED3
:1013D000022203220422052206220722082201C03B
:1013E00001F002C002F003C003F004C004F005C025
:1013F00005F006C006F007C007F008C008F01200AC
:10140000010E126E010E136EFE0E0B6EFF0E0C6EB1
:1014100007C00DF008C00EF00B500D260C500E2228
:1014200003C0D9FF04C0DAFFDF500F6E106A0D5001
:101430000F5C1050800A116E0E50800A1158D8A00F
:1014400024EF0AF026EF0AF042EF0AF003C0D9FFBA
:1014500004C0DAFFDF500B6E0C6A020E07240D6E1B
:10146000000E08200E6E0B500D5C0E50800A0F6EA1
:101470000C50800A0F58D8B040EF0AF042EF0AF043
:1014800044EF0AF0000E126EFE0E0B6EFF0E0C6E95
:1014900009C00DF00AC00EF00B500D260C500E22A4
:1014A00005C0D9FF06C0DAFFDF500F6E106A0D507D
:1014B0000F5C1050800A116E0E50800A1158D8A08F
:1014C00064EF0AF066EF0AF082EF0AF005C0D9FF78
:1014D00006C0DAFFDF500B6E0C6A020E09240D6E97
:1014E000000E0A200E6E0B500D5C0E50800A0F6E1F
:1014F0000C50800A0F58D8B080EF0AF082EF0AF043
:1015000084EF0AF0000E136E13C001F012505AEC73
:101510000CF0120003500410D8B491EF0AF093EFCE
:101520000AF09CEF0AF003500410D8A49AEF0AF0D6
:101530009CEF0AF0A1EF0AF0015031EC0EF0EEEF53
:101540000AF020EE04F00350D9260450DA22DE50CF
:10155000DE10D8B4AEEF0AF0B0EF0AF0CBEF0AF02D
:1015600020EE04F00350D9260450DA2210EE02F0E7
:101570000350E1260450E222DE50E65CE650800A89
:10158000096EDE50800A0958D8B0C9EF0AF0CBEFD7
:101590000AF0EEEF0AF020EE02F00350D9260450D4
:1015A000DA22DECF05F0DDCF06F003C0D9FF04C09C
:1015B000DAFFDECF07F0DDCF08F005500724D96E43
:1015C00006500820DA6E01C0DFFF20EE02F0035063
:1015D000D9260450DA22DE2A000EDD221200000194
:1015E00066A1F5EF0AF0F7EF0AF001EF0BF013C078
:1015F0000AF014C00BF011C00CF012C00DF0FEEC9C
:101600000CF016BE06EF0BF008EF0BF00EEF0BF030
:1016100015C01AF016C01BF012EF0BF0000E1B6E77
:10162000000E1A6E000E196E000E186E24EF0BF0ED
:10163000000E026E200E016E11C003F012C004F005
:101640008AEC0AF0184A192A1A50185C1950800AB4
:10165000176E1B50800A1758D8A031EF0BF033EFEC
:101660000BF018EF0BF0000166B139EF0BF03BEF18
:101670000BF045EF0BF013C00AF014C00BF011C0D3
:101680000CF012C00DF0FEEC0CF013C001F014C011
:1016900002F09AEC0DF01A500124116E1B5002203A
:1016A000126E1200E5EC0DF0000E056E0AC006F099
:1016B0000BC007F0000E40EC0DF0C00ED6EC0CF0A5
:1016C000000E126E000E116E8AEC05F0106E1050B6
:1016D000AEEC0CF011500C24D96E12500D20DA6EC5
:1016E00010C0DFFF114A122A12BE80EF0BF0125019
:1016F00009E1020E115CD8A080EF0BF082EF0BF035
:1017000064EF0BF0020E0F6E040E0E6EBA0EE82E92
:10171000FED70E2EFCD70F2EFAD700D0E5EC0DF039
:101720001200000E0B6E000E0A6E000E0D6E000E03
:101730000C6E07C0D9FF08C0DAFFDF50096ED00E6B
:1017400009240E6E0F6AFF0E0F2220EE01F00750E3
:10175000D9260850DA22DF50096ED00E09240A6E0D
:101760000B6AFF0E0B220EC001F00FC002F0000E3C
:10177000046E0A0E036EFAEC0DF001C00EF002C00A
:101780000FF00A500E240C6E0B500F200D6E0CC083
:1017900007F00DC008F0120052C056F053C057F0C9
:1017A000000E0001616F000E606FEAEF0BF050C099
:1017B00040F051C041F0560E426E000E436E54C0D0
:1017C00044F055C045F0B0EC07F0405000016027F0
:1017D0004150612356C0F6FF57C0F7FF0800F5508F
:1017E0000009D8A4F6EF0BF0F8EF0BF0D7EF0BF0F1
:1017F00060C050F061C051F0120013EF0CF003C054
:10180000F6FF04C0F7FFF86A070EF76403D008007C
:10181000F55005D0F6CFE1FFF7CFE2FFE750AEEC91
:101820000CF0034A042A03C0F6FF04C0F7FFF86A6D
:10183000070EF76403D00800F55005D0F6CFE1FF9E
:10184000F7CFE2FFE7500009D8A429EF0CF02BEF07
:101850000CF0FFEF0BF01200000E026E000E016E96
:1018600080A035EF0CF037EF0CF030EF0CF0140ED9
:10187000E82EFED780A03FEF0CF041EF0CF045EFD3
:101880000CF0D880023648EF0CF002500224026EB1
:1018900080B04DEF0CF04FEF0CF048EF0CF0012A48
:1018A000070E016456EF0CF058EF0CF030EF0CF01F
:1018B00002501200026E2DEC0EF00250D8A463EF1D
:1018C0000CF065EF0CF070EF0CF00150D8A46BEF4A
:1018D0000CF06DEF0CF070EF0CF08D8084EF0CF0DD
:1018E0000250D8B476EF0CF078EF0CF080EF0CF0EB
:1018F0000150D8A47EEF0CF080EF0CF083EF0CF0D9
:101900008D8284EF0CF08D8412005C0E0001AB6FB1
:10191000000EAC6F58C0ADF059C0AEF0000EB06F05
:10192000000EAF6F000EB26F000EB16FAD0E506EB5
:10193000000E516E5AC052F05BC053F0AB0E546EA5
:10194000000E556ECCEC0BF00001AF515824D96E4F
:10195000B0515920DA6E000EDF6E1200026E02C026
:1019600001F0F00E01168C500F0B01108C6E8C8064
:101970008C8200F08C92030E016E980EE82EFED73A
:10198000012EFCD702C001F0013AF00E01168C5076
:101990000F0B01108C6E8C8200F08C92080E016E81
:1019A000CA0EE82EFED7012EFCD71200026E02C02E
:1019B00001F0F00E01168C500F0B01108C6E8C9004
:1019C0008C8200F08C92030E016E980EE82EFED7EA
:1019D000012EFCD702C001F0013AF00E01168C5026
:1019E0000F0B01108C6E8C8200F08C92080E016E31
:1019F000CA0EE82EFED7012EFCD71200000E106E84
:101A0000000E0F6E0FEF0DF00EC001F0026A0CC059
:101A100003F00DC004F08AEC0AF00F4A102A0F50B0
:101A20000A24D96E10500B20DA6EDF500E6E0E5065
:101A3000D8A41DEF0DF01FEF0DF004EF0DF0120014
:101A400014BE2DEF0DF0145006E11304D8B02BEFA7
:101A50000DF02DEF0DF03BEF0DF013C015F014C09D
:101A600016F0151E161E154A162A15C013F016C0BC
:101A700014F03FEF0DF013C013F014C014F0120077
:101A8000086E020E086047EF0DF049EF0DF052EFBF
:101A90000DF005500F0B8009096E0950D6EC0CF0C3
:101AA00059EF0DF005500F0BC009096E0950D6EC27
:101AB0000CF006C003F007C004F0FDEC0BF01200C0
:101AC0001DEC0EF0CFEC0DF02CEC0CF0056E2CECB8
:101AD0000CF02CEC0CF0066E2CEC0CF02CEC0CF05A
:101AE00003C0D9FF04C0DAFF06C0DFFF20EE01F01B
:101AF0000350D9260450DA2205C0DFFF12001A0E67
:101B0000F66E1C0EF76E000EF86E00EE8BF010EE07
:101B100020F00900F5CFEEFFE550E150FAE100EECC
:101B200060F02B0EEE6AE806FDE1000EF86E000193
:101B3000A2EF06F001C003F002C004F0A2EF0DF026
:101B4000014A022A01C0D9FF02C0DAFFDF50D8A43F
:101B5000ACEF0DF0AEEF0DF0A0EF0DF00350015C17
:101B6000016E04500258026E1200000E956E270E90
:101B7000036EF50EE82EFED7032EFCD700F0020E02
:101B8000D6EC0CF0280ED6EC0CF0010ED6EC0CF0D6
:101B90000C0ED6EC0CF0060ED6EC0CF0120080B059
:101BA000D4EF0DF0D6EF0DF0CFEF0DF080A0DBEF0E
:101BB0000DF0DDEF0DF0D6EF0DF080B0E2EF0DF09F
:101BC000E4EF0DF0DDEF0DF01200010ED6EC0CF09D
:101BD000080E036ECA0EE82EFED7032EFCD7800E29
:101BE000D6EC0CF0030E036E980EE82EFED7032EF3
:101BF000FCD7120001500302F3CF05F0F4CF06F03A
:101C000001500402F350062602500302F350062648
:101C100005C001F006C002F012003132332F343516
:101C2000362A3738392D2A30232B31323341343597
:101C30003642373839432A302344929089902F0E08
:101C4000016EC00EE82EFED7012EFCD789800D0E46
:101C5000E82EFED700F0928012008D928D908D9428
:041C6000120012005C
:020000040020DA
:08000000FFFFFFFFFFFFFFFF00
:020000040030CA
:0E00000000091F1EFF8181FF0FC00FE00F409F
:00000001FF
