:0400000042EF0EF0CD
:100800000054656D702E20416465637561646100FC
:100810004D676E204572726F722054656D7000488E
:10082000756D2E204164656375616461004D676E6E
:10083000204572726F722048756D00432054656DBB
:0F084000702E00202048756D2E002E25640000BC
:10085000000E966E000E956E000E0001AB6F000E3E
:10086000A46F000EA36F000EA66F000EA56F000E02
:10087000A26F000EA16F000EA86F000EA76F000EF2
:10088000AA6F000EA96F720ED36E0F0EC16E000E0E
:10089000946EF7EC0EF0F19E78EC0EF00001A2BF22
:1008A0005DEF04F0A25107E1020EA15DD8B05BEF4D
:1008B00004F05DEF04F0C0EF04F0010E0A6E080EC4
:1008C0000B6E9D0E0C6E000E0D6E000E0F6E020E66
:1008D0000E6ECCEC0BF0020E5F6E040E5E6EBA0E66
:1008E000E82EFED75E2EFCD75F2EFAD700D0100E72
:1008F0000A6E080E0B6EAC0E0C6E000E0D6E000E26
:100900000F6E010E0E6ECCEC0BF0020E5F6E040E3D
:100910005E6EBA0EE82EFED75E2EFCD75F2EFAD79B
:1009200000D01F0E0A6E080E0B6E9F0E0C6E000E8E
:100930000D6E000E0F6E020E0E6ECCEC0BF0020E62
:100940005F6E040E5E6EBA0EE82EFED75E2EFCD7EA
:100950005F2EFAD700D02D0E0A6E080E0B6EAD0E6C
:100960000C6E000E0D6E000E0F6E010E0E6ECCECB6
:100970000BF0000E0001A26F020EA16FEBEF04F06E
:10098000AB51D8A4C6EF04F0C8EF04F0E9EF04F0CF
:100990009D0E076E000E086E0EEC0CF007C0A7F05F
:1009A00008C0A8F09F0E076E000E086E0EEC0CF04B
:1009B00007C0A9F008C0AAF0D00E0001AC25A36FB3
:1009C000A46BFF0EA423D00EAD25A56FA66BFF0E62
:1009D000A623010EAB6FAB05D8A4F1EF04F0F3EF43
:1009E00004F04EEF04F0AE0E036E000E046E23EC26
:1009F0000EF0AE0E036E000E046EAF0E056E000E0E
:100A0000066EA7C007F0A8C008F0A9C009F0AAC0E8
:100A10000AF0A3C00BF0A4C00CF0A5C00DF0A6C056
:100A20000EF086EC0AF0AF0E016E000E026EA9C049
:100A300003F0AAC004F0A5C005F0A6C006F09EEC25
:100A40000DF0AE0E016E000E026EA7C003F0A8C03E
:100A500004F0A3C005F0A4C006F07BEC0DF0930EEB
:100A6000586E000E596E4B0E5A6E080E5B6EAFC07C
:100A70005CF05D6A02EC0DF0000E056E930E066EE2
:100A8000000E076E000E03EC0EF0930E586E000E73
:100A9000596E4A0E5A6E080E5B6E000E5D6E000EA9
:100AA0005C6E02EC0DF0250E2BEC0DF0930E586EE3
:100AB000000E596E430E5A6E080E5B6E02EC0DF07E
:100AC000930E036E000E046E7AEC0CF0930E586ECB
:100AD000000E596E4B0E5A6E080E5B6EAEC05CF087
:100AE0005D6A02EC0DF0000E056E930E066E000EB0
:100AF000076E020E03EC0EF0930E586E000E596E48
:100B00004A0E5A6E080E5B6E000E5D6E000E5C6E35
:100B100002EC0DF0DF0E2BEC0DF0930E586E000E74
:100B2000596E3B0E5A6E080E5B6E02EC0DF0930E82
:100B3000036E000E046E7AEC0CF0090E5F6E1E0E52
:100B40005E6EE40EE82EFED75E2EFCD75F2EFAD73F
:100B500000D04EEF04F000EF00F01EC036F01FC0D2
:100B600037F020C038F021C039F022C03AF023C05D
:100B70003BF024C03CF025C03DF03DBEC2EF05F087
:100B8000C5EF05F0010EC6EF05F0000E346E356AB4
:100B900034503510D8B4CFEF05F0D1EF05F0E1EFC8
:100BA00005F03D1E3C1E3B1E3A1E391E381E371EE8
:100BB000366C000E3722382239223A223B223C2260
:100BC0003D22000165BFE7EF05F0E9EF05F0EAEF30
:100BD00005F0669365BFF7EF05F0655106E1640522
:100BE000D8B0F5EF05F0F7EF05F0FDEF05F0000EDA
:100BF000316E010E306E01EF06F064C030F065C05A
:100C000031F062C032F063C033F034503510D8A4F4
:100C10000CEF06F00EEF06F015EF06F066A513EFE9
:100C200006F015EF06F018EF06F03206D8A03306EE
:100C3000000E3F6E1F0E3E6E000E8A6F9CEF06F098
:100C40003E06D8A03F066B0E3E24D96E000E3F2014
:100C5000DA6E36C001F037C002F038C003F039C098
:100C600004F03AC005F03BC006F03CC007F03DC0C0
:100C700008F00A0E096E000E0A6E000E0B6E000ED2
:100C80000C6E000E0D6E000E0E6E000E0F6E000E3E
:100C9000106ED4EC09F001C026F002C027F003C0AA
:100CA00028F004C029F005C02AF006C02BF007C0C8
:100CB0002CF008C02DF026C013F028C014F0E3EC8F
:100CC0000DF01350300FDF6E3006D8A0310632061B
:100CD000D8A0330636C001F037C002F038C003F0A8
:100CE00039C004F03AC005F03BC006F03CC007F044
:100CF0003DC008F00A0E096E000E0A6E000E0B6E63
:100D0000000E0C6E000E0D6E000E0E6E000E0F6EBD
:100D1000000E106E10EC09F001C036F002C037F082
:100D200003C038F004C039F005C03AF006C03BF00B
:100D300007C03CF008C03DF03FBEA7EF06F03F50B3
:100D400008E13E04D8A0A7EF06F0A9EF06F0DAEF1D
:100D500006F036503710381039103A103B103C105E
:100D60003D10D8A4B6EF06F0B8EF06F020EF06F07D
:100D700031BEC5EF06F0315006E13004D8B0C3EF04
:100D800006F0C5EF06F020EF06F033BED0EF06F018
:100D9000335008E13204D8A0D0EF06F0D2EF06F0CD
:100DA000DAEF06F0000166B3D8EF06F0DAEF06F0EE
:100DB00020EF06F034503510D8A4E1EF06F0E3EF51
:100DC00006F0EBEF06F0000166A5E9EF06F0EBEFA9
:100DD00006F009EF07F03E06D8A03F063450351064
:100DE000D8A4F5EF06F0F7EF06F0FDEF06F0000EE1
:100DF0002F6E2B0E2E6E01EF07F0000E2F6E2D0EB4
:100E00002E6E6B0E3E24D96E000E3F20DA6E2EC081
:100E1000DFFF1CC011F01DC012F06B0E3E24136EDC
:100E2000000E3F20146E32C015F033C016F069EC8E
:100E30000BF011C01CF012C01DF01200F00E936EEA
:100E4000F00E8A6E8150F00B00016A6FF00E6A1985
:100E5000D8A42DEF07F02FEF07F022EF07F0815015
:100E6000F00B6A6FF00E6A19D8A439EF07F03BEF68
:100E700007F022EF07F04E0E016EEB0EE82EFED7C4
:100E8000012EFCD700F0F00E8A6E8150F00B0001AD
:100E90006A6FF00E6A19D8B450EF07F052EF07F0FE
:100EA00045EF07F08150F00B6A6FF00E6A19D8B465
:100EB0005CEF07F05EEF07F045EF07F04E0E016EB6
:100EC000EB0EE82EFED7012EFCD700F08150F00B80
:100ED00000016A6FFE0E8A6E8150F00B6A6F6AC065
:100EE00068F0F00E6A19D8B478EF07F07AEF07F0DF
:100EF0008CEF07F0000E696F81EF07F08150F00B67
:100F0000686FF00E6819D8A488EF07F08AEF07F031
:100F10007EEF07F0F0EF07F0FD0E8A6E8150F00BC8
:100F20006A6F6AC068F0F00E6A19D8B49AEF07F0D9
:100F30009CEF07F0AEEF07F0010E696FA3EF07F02B
:100F40008150F00B686FF00E6819D8A4AAEF07F073
:100F5000ACEF07F0A0EF07F0F0EF07F0FB0E8A6EA2
:100F60008150F00B6A6F6AC068F0F00E6A19D8B44D
:100F7000BCEF07F0BEEF07F0D0EF07F0020E696F8D
:100F8000C5EF07F08150F00B686FF00E6819D8A418
:100F9000CCEF07F0CEEF07F0C2EF07F0F0EF07F06D
:100FA000F70E8A6E8150F00B6A6F6AC068F0F00E1F
:100FB0006A19D8B4DEEF07F0E0EF07F06AEF07F048
:100FC000030E696FE7EF07F08150F00B686FF00ECA
:100FD0006819D8A4EEEF07F0F0EF07F0E4EF07F0A0
:100FE000E00E6A19D8A4F7EF07F0F9EF07F004EF65
:100FF00008F06951040DB00EF324D96E000EF420F0
:10100000DA6EDF5035EF08F0D00E6A19D8A40BEF76
:1010100008F00DEF08F018EF08F06951040DB10E5B
:10102000F324D96E000EF420DA6EDF5035EF08F0AD
:10103000B00E6A19D8A41FEF08F021EF08F02CEFCA
:1010400008F06951040DB20EF324D96E000EF4209D
:10105000DA6EDF5035EF08F06951040DB30EF3245A
:10106000D96E000EF420DA6EDF50120042C0D9FFB4
:1010700043C0DAFFDECFF6FFDDCFF7FF0800F55003
:10108000250AD8A446EF08F048EF08F0F4EF08F07E
:1010900042C0D9FF43C0DAFFDE2A000EDD22000E77
:1010A0000001636F000E626F62C066F063C067F09C
:1010B0006469656942C0D9FF43C0DAFFDECFF6FF3D
:1010C000DDCFF7FF0800F550640AD8B46AEF08F0E6
:1010D0006CEF08F07EEF08F042C0D9FF43C0DAFFA2
:1010E000DECFF6FFDDCFF7FF0800F550690AD8A480
:1010F0007CEF08F07EEF08F0BEEF08F042C0D9FFA9
:1011000043C0DAFFDE2A000EDD2244C0D9FF45C00D
:10111000DAFFDFCF46F0020EDE26DFCF47F0000E0B
:10112000DD2246C0D9FF47C0DAFFDECF48F0DDCF71
:1011300049F0000E49BEFF0E4A6E4B6E4C6E4D6E6E
:101140004E6E4F6E40C01CF041C01DF048C01EF0F6
:1011500049C01FF04AC020F04BC021F04CC022F023
:101160004DC023F04EC024F04FC025F0ADEC05F08B
:101170001CC040F01DC041F00FEF09F042C0D9FF84
:1011800043C0DAFFDECFF6FFDDCFF7FF0800F550F2
:10119000250AD8A4CEEF08F0D0EF08F0E7EF08F06A
:1011A00042C0D9FF43C0DAFFDE2A000EDD22000E66
:1011B000026E250E016E40C003F041C004F004EC45
:1011C0000BF0000E416E010E406E0FEF09F042C0B1
:1011D000D9FF43C0DAFFDE2A000EDD22000E416E89
:1011E000000E406E0FEF09F042C0D9FF43C0DAFF96
:1011F000DECFF6FFDDCFF7FF0800F550016E026A83
:1012000040C003F041C004F004EC0BF042C0D9FF31
:1012100043C0DAFFDE2A000EDD22E1EF08F0120003
:10122000000E126E10BE19EF09F017EF09F02BEF48
:1012300009F0101E0F1E0E1E0D1E0C1E0B1E0A1E88
:10124000096C000E0A220B220C220D220E220F2204
:101250001022010E126E08BE32EF09F030EF09F0D5
:1012600044EF09F0081E071E061E051E041E031E7D
:10127000021E016C000E0222032204220522062215
:1012800007220822010E121A20EE13F0070EDE6A62
:10129000E806FDE209500A100B100C100D100E109C
:1012A0000F101010D8B457EF09F059EF09F0ABEF59
:1012B00009F0010E116E67EF09F0D89009360A3671
:1012C0000B360C360D360E360F361036112A10AE90
:1012D0006CEF09F06EEF09F05DEF09F0D89013366E
:1012E0001436153616361736183619361A3609508A
:1012F000015C0A5002580B5003580C5004580D5012
:1013000005580E5006580F50075810500858D8A0CE
:101310008CEF09F08EEF09F09FEF09F00950015EA4
:101320000A50025A0B50035A0C50045A0D50055AD9
:101330000E50065A0F50075A1050085A1380D89072
:1013400010320F320E320D320C320B320A320932A9
:10135000112E6EEF09F01250D8B4B1EF09F0B3EFCF
:1013600009F0C3EF09F01A1E191E181E171E161ECB
:10137000151E141E136C000E14221522162217229D
:10138000182219221A2213C001F014C002F015C04D
:1013900003F016C004F017C005F018C006F019C01D
:1013A00007F01AC008F01200000E126E08BEDDEF42
:1013B00009F0DBEF09F0EFEF09F0081E071E061E2B
:1013C000051E041E031E021E016C000E02220322D3
:1013D00004220522062207220822010E126E10BEE8
:1013E000F6EF09F0F4EF09F006EF0AF0101E0F1EF9
:1013F0000E1E0D1E0C1E0B1E0A1E096C000E0A226C
:101400000B220C220D220E220F22102209500A104C
:101410000B100C100D100E100F101010D8B413EF8D
:101420000AF015EF0AF05DEF0AF0010E116E23EFDE
:101430000AF0D89009360A360B360C360D360E36C1
:101440000F361036112A10AE28EF0AF02AEF0AF0F4
:1014500019EF0AF00950015C0A5002580B5003586A
:101460000C5004580D5005580E5006580F50075890
:1014700010500858D8A03FEF0AF041EF0AF051EFA2
:101480000AF00950015E0A50025A0B50035A0C50E0
:10149000045A0D50055A0E50065A0F50075A105054
:1014A000085AD89010320F320E320D320C320B32F5
:1014B0000A320932112E2AEF0AF01250D8B463EF23
:1014C0000AF065EF0AF075EF0AF0081E071E061E07
:1014D000051E041E031E021E016C000E02220322C2
:1014E0000422052206220722082201C001F002C0C0
:1014F00002F003C003F004C004F005C005F006C00C
:1015000006F007C007F008C008F01200010E146EC4
:10151000010E156E0B50075C0F6E0C500858106EC4
:1015200003C0D9FF04C0DAFFDF50116E126A0F50FA
:10153000115C1250800A136E1050800A1358D8A004
:10154000A4EF0AF0A6EF0AF0C2EF0AF003C0D9FF39
:1015500004C0DAFFDF500F6E106A0B500724116EC3
:101560000C500820126E0F50115C1250800A136E3E
:101570001050800A1358D8B0C0EF0AF0C2EF0AF03A
:10158000C4EF0AF0000E146E0D50095C0F6E0E5081
:101590000A58106E05C0D9FF06C0DAFFDF50116E81
:1015A000126A0F50115C1250800A136E1050800A9C
:1015B0001358D8A0DEEF0AF0E0EF0AF0FCEF0AF0D3
:1015C00005C0D9FF06C0DAFFDF500F6E106A0D505C
:1015D0000924116E0E500A20126E0F50115C125029
:1015E000800A136E1050800A1358D8B0FAEF0AF030
:1015F000FCEF0AF0FEEF0AF0000E156E15C001F0C8
:101600001450D7EC0CF0120003500410D8B40BEFB8
:101610000BF00DEF0BF016EF0BF003500410D8A4F5
:1016200014EF0BF016EF0BF01BEF0BF00150FAEC80
:101630000EF068EF0BF020EE04F00350D9260450B2
:10164000DA22DE50DE10D8B428EF0BF02AEF0BF0D0
:1016500045EF0BF020EE04F00350D9260450DA22B7
:1016600010EE02F00350E1260450E222DE50E65C68
:10167000E650800A096EDE50800A0958D8B043EF60
:101680000BF045EF0BF068EF0BF020EE02F003508B
:10169000D9260450DA22DECF05F0DDCF06F003C0F4
:1016A000D9FF04C0DAFFDECF07F0DDCF08F0055028
:1016B0000724D96E06500820DA6E01C0DFFF20EE45
:1016C00002F00350D9260450DA22DE2A000EDD2271
:1016D0001200000166A16FEF0BF071EF0BF07BEFD2
:1016E0000BF013C00AF014C00BF011C00CF012C0C4
:1016F0000DF0C1EC0DF016BE80EF0BF082EF0BF099
:1017000088EF0BF015C01AF016C01BF08CEF0BF031
:10171000000E1B6E000E1A6E000E196E000E186E73
:101720009EEF0BF0000E026E200E016E11C003F052
:1017300012C004F004EC0BF0184A192A1A50185C75
:101740001950800A176E1B50800A1758D8A0ABEFAB
:101750000BF0ADEF0BF092EF0BF0000166B1B3EFC1
:101760000BF0B5EF0BF0BFEF0BF013C00AF014C095
:101770000BF011C00CF012C00DF0C1EC0DF013C055
:1017800001F014C002F05DEC0EF01A500124116E4D
:101790001B500220126E1200A8EC0EF0000E056E17
:1017A0000AC006F00BC007F0000E03EC0EF0C00EEE
:1017B00053EC0DF0000E136E000E126EF0EF0BF0F6
:1017C0001EEC07F0146E14502BEC0DF012500C248C
:1017D000D96E13500D20DA6E14C0DFFF124A132A9F
:1017E0000E50125C1350800A106E0F50800A105871
:1017F000D8A0FDEF0BF0FFEF0BF0E0EF0BF0020EC7
:10180000116E040E106EBA0EE82EFED7102EFCD705
:10181000112EFAD700D0A8EC0EF01200000E0B6EBD
:10182000000E0A6E000E0D6E000E0C6E07C0D9FF82
:1018300008C0DAFFDF50096ED00E09240E6E0F6A61
:10184000FF0E0F2220EE01F00750D9260850DA22B1
:10185000DF50096ED00E09240A6E0B6AFF0E0B22B0
:101860000EC001F00FC002F0000E046E0A0E036EEF
:10187000BDEC0EF001C00EF002C00FF00A500E24B5
:101880000C6E0B500F200D6E0CC007F00DC008F051
:10189000120052C056F053C057F0000E0001616FA5
:1018A000000E606F67EF0CF050C040F051C041F087
:1018B000560E426E000E436E54C044F055C045F0C3
:1018C00036EC08F04050000160274150612356C0BB
:1018D000F6FF57C0F7FF0800F5500009D8A473EFD2
:1018E0000CF075EF0CF054EF0CF060C050F061C0DC
:1018F00051F0120090EF0CF003C0F6FF04C0F7FFA8
:10190000F86A070EF76403D00800F55005D0F6CF4B
:10191000E1FFF7CFE2FFE7502BEC0DF0034A042A7A
:1019200003C0F6FF04C0F7FFF86A070EF76403D0A0
:101930000800F55005D0F6CFE1FFF7CFE2FFE75002
:101940000009D8A4A6EF0CF0A8EF0CF07CEF0CF087
:101950001200000E026E000E016E80A0B2EF0CF0BD
:10196000B4EF0CF0ADEF0CF0140EE82EFED780A013
:10197000BCEF0CF0BEEF0CF0C2EF0CF0D8800236DA
:10198000C5EF0CF002500224026E80B0CAEF0CF0DA
:10199000CCEF0CF0C5EF0CF0012A070E0164D3EF79
:1019A0000CF0D5EF0CF0ADEF0CF002501200026E0F
:1019B000F0EC0EF00250D8A4E0EF0CF0E2EF0CF0E7
:1019C000EDEF0CF00150D8A4E8EF0CF0EAEF0CF0CA
:1019D000EDEF0CF08D8001EF0DF00250D8B4F3EF75
:1019E0000CF0F5EF0CF0FDEF0CF00150D8A4FBEF7C
:1019F0000CF0FDEF0CF000EF0DF08D8201EF0DF01B
:101A00008D8412005C0E00018B6F000E8C6F58C02D
:101A10008DF059C08EF0000E906F000E8F6F000E8B
:101A2000926F000E916F8D0E506E000E516E5AC067
:101A300052F05BC053F08B0E546E000E556E49ECA5
:101A40000CF000018F515824D96E90515920DA6E54
:101A5000000EDF6E1200026E02C001F0F00E0116E1
:101A60008C500F0B01108C6E8C808C8200F08C924D
:101A7000030E016E980EE82EFED7012EFCD702C091
:101A800001F0013AF00E01168C500F0B01108C6E14
:101A90008C8200F08C92080E016ECA0EE82EFED7E2
:101AA000012EFCD71200026E02C001F0F00E0116EA
:101AB0008C500F0B01108C6E8C908C8200F08C92ED
:101AC000030E016E980EE82EFED7012EFCD702C041
:101AD00001F0013AF00E01168C500F0B01108C6EC4
:101AE0008C8200F08C92080E016ECA0EE82EFED792
:101AF000012EFCD7120001C0D9FF02C0DAFFDF506F
:101B0000076E086A05500324096E065004200A6E09
:101B10000750095C0A50800A0B6E0850800A0B5867
:101B2000D8B095EF0DF097EF0DF09BEF0DF08B8493
:101B30008B8C9DEF0DF0F4EC0EF012000550035C61
:101B4000076E06500458086E01C0D9FF02C0DAFFC4
:101B5000DF50096E0A6A0750095C0A50800A0B6E52
:101B60000850800A0B58D8B0B8EF0DF0BAEF0DF05E
:101B7000BEEF0DF08B808B82C0EF0DF08B908B92BF
:101B80001200000E106E000E0F6ED2EF0DF00EC0A0
:101B900001F0026A0CC003F00DC004F004EC0BF07D
:101BA0000F4A102A0F500A24D96E10500B20DA6EFB
:101BB000DF500E6E0E50D8A4E0EF0DF0E2EF0DF006
:101BC000C7EF0DF0120014BEF0EF0DF0145006E157
:101BD0001304D8B0EEEF0DF0F0EF0DF0FEEF0DF0C6
:101BE00013C015F014C016F0151E161E154A162A3D
:101BF00015C013F016C014F002EF0EF013C013F06E
:101C000014C014F01200086E020E08600AEF0EF005
:101C10000CEF0EF015EF0EF005500F0B8009096E5A
:101C2000095053EC0DF01CEF0EF005500F0BC009DE
:101C3000096E095053EC0DF006C003F007C004F024
:101C40007AEC0CF01200E0EC0EF092EC0EF0A9EC45
:101C50000CF0056EA9EC0CF0A9EC0CF0066EA9ECEA
:101C60000CF0A9EC0CF003C0D9FF04C0DAFF06C0E9
:101C7000DFFF20EE01F00350D9260450DA2205C020
:101C8000DFFF1200A00EF66E1D0EF76E000EF86E4E
:101C900000EEB0F010EE20F00900F5CFEEFFE550B9
:101CA000E150FAE100EE60F02B0EEE6AE806FDE18D
:101CB000000EF86E000128EF04F001C003F002C02E
:101CC00004F065EF0EF0014A022A01C0D9FF02C0FC
:101CD000DAFFDF50D8A46FEF0EF071EF0EF063EF74
:101CE0000EF00350015C016E04500258026E1200A7
:101CF000000E956E270E036EF50EE82EFED7032E0E
:101D0000FCD700F0020E53EC0DF0280E53EC0DF052
:101D1000010E53EC0DF00C0E53EC0DF0060E53ECCF
:101D20000DF0120080B097EF0EF099EF0EF092EFE9
:101D30000EF080A09EEF0EF0A0EF0EF099EF0EF0E7
:101D400080B0A5EF0EF0A7EF0EF0A0EF0EF012009E
:101D5000010E53EC0DF0080E036ECA0EE82EFED7EE
:101D6000032EFCD7800E53EC0DF0030E036E980E7D
:101D7000E82EFED7032EFCD7120001500302F3CF4A
:101D800005F0F4CF06F001500402F350062602508D
:101D90000302F350062605C001F006C002F012004F
:101DA0003132332F3435362A3738392D2A30232B28
:101DB0003132334134353642373839432A302344BF
:101DC000929089902F0E016EC00EE82EFED7012E44
:101DD000FCD789800D0EE82EFED700F0928012000D
:101DE0008D928D908D9412008B948B9C12008B9011
:061DF0008B9212001200AC
:020000040020DA
:08000000FFFFFFFFFFFFFFFF00
:020000040030CA
:0E00000000091F1EFF8181FF0FC00FE00F409F
:00000001FF
