:0400000046EF0EF0C9
:100800000054656D702E20416465637561646100FC
:100810004D676E204572726F722054656D7000488E
:10082000756D2E204164656375616461004D676E6E
:10083000204572726F722048756D00432054656DBB
:0F084000702E00202048756D2E002E25640000BC
:10085000000E966E000E956E000E0001AB6F000E3E
:10086000A46F000EA36F000EA66F000EA56F000E02
:10087000A26F000EA16F000EA86F000EA76F000EF2
:10088000AA6F000EA96F720ED36E0F0EC16E000E0E
:10089000946EFBEC0EF0F8EC0EF0F19E7CEC0EF09A
:1008A000F4EC0EF00001A2BF61EF04F0A25107E1E9
:1008B000020EA15DD8B05FEF04F061EF04F0C4EF69
:1008C00004F0010E0A6E080E0B6E9D0E0C6E000EEB
:1008D0000D6E000E0F6E020E0E6ED0EC0BF0020EBF
:1008E0005F6E040E5E6EBA0EE82EFED75E2EFCD74B
:1008F0005F2EFAD700D0100E0A6E080E0B6EAC0EEB
:100900000C6E000E0D6E000E0F6E010E0E6ED0EC12
:100910000BF0020E5F6E040E5E6EBA0EE82EFED76E
:100920005E2EFCD75F2EFAD700D01F0E0A6E080E7F
:100930000B6E9F0E0C6E000E0D6E000E0F6E020EF3
:100940000E6ED0EC0BF0020E5F6E040E5E6EBA0EF1
:10095000E82EFED75E2EFCD75F2EFAD700D02D0EE4
:100960000A6E080E0B6EAD0E0C6E000E0D6E000EB4
:100970000F6E010E0E6ED0EC0BF0000E0001A26F98
:10098000020EA16FEFEF04F0AB51D8A4CAEF04F050
:10099000CCEF04F0EDEF04F09D0E076E000E086E34
:1009A00012EC0CF007C0A7F008C0A8F09F0E076E6D
:1009B000000E086E12EC0CF007C0A9F008C0AAF0F7
:1009C000D00E0001AC25A36FA46BFF0EA423D00EA4
:1009D000AD25A56FA66BFF0EA623010EAB6FAB0571
:1009E000D8A4F5EF04F0F7EF04F052EF04F0AE0EE8
:1009F000036E000E046E27EC0EF0AE0E036E000EBA
:100A0000046EAF0E056E000E066EA7C007F0A8C0FC
:100A100008F0A9C009F0AAC00AF0A3C00BF0A4C056
:100A20000CF0A5C00DF0A6C00EF08AEC0AF0AF0ED7
:100A3000016E000E026EA9C003F0AAC004F0A5C0AA
:100A400005F0A6C006F0A2EC0DF0AE0E016E000E91
:100A5000026EA7C003F0A8C004F0A3C005F0A4C0B4
:100A600006F07FEC0DF0930E586E000E596E4B0E93
:100A70005A6E080E5B6EAFC05CF05D6A06EC0DF05E
:100A8000000E056E930E066E000E076E000E07EC4C
:100A90000EF0930E586E000E596E4A0E5A6E080EE6
:100AA0005B6E000E5D6E000E5C6E06EC0DF0250EAA
:100AB0002FEC0DF0930E586E000E596E430E5A6EC9
:100AC000080E5B6E06EC0DF0930E036E000E046EC6
:100AD0007EEC0CF0930E586E000E596E4B0E5A6E53
:100AE000080E5B6EAEC05CF05D6A06EC0DF0000EA9
:100AF000056E930E066E000E076E020E07EC0EF0EA
:100B0000930E586E000E596E4A0E5A6E080E5B6EAA
:100B1000000E5D6E000E5C6E06EC0DF0DF0E2FEC2D
:100B20000DF0930E586E000E596E3B0E5A6E080E65
:100B30005B6E06EC0DF0930E036E000E046E7EEC01
:100B40000CF0090E5F6E1E0E5E6EE40EE82EFED7F0
:100B50005E2EFCD75F2EFAD700D052EF04F000EFE4
:100B600000F01EC036F01FC037F020C038F021C0A2
:100B700039F022C03AF023C03BF024C03CF025C03D
:100B80003DF03DBEC6EF05F0C9EF05F0010ECAEF1E
:100B900005F0000E346E356A34503510D8B4D3EFFA
:100BA00005F0D5EF05F0E5EF05F03D1E3C1E3B1EC0
:100BB0003A1E391E381E371E366C000E3722382278
:100BC00039223A223B223C223D22000165BFEBEF55
:100BD00005F0EDEF05F0EEEF05F0669365BFFBEF76
:100BE00005F0655106E16405D8B0F9EF05F0FBEFBB
:100BF00005F001EF06F0000E316E010E306E05EFCC
:100C000006F064C030F065C031F062C032F063C0FD
:100C100033F034503510D8A410EF06F012EF06F080
:100C200019EF06F066A517EF06F019EF06F01CEFB6
:100C300006F03206D8A03306000E3F6E1F0E3E6E41
:100C4000000E8A6FA0EF06F03E06D8A03F066B0E9E
:100C50003E24D96E000E3F20DA6E36C001F037C058
:100C600002F038C003F039C004F03AC005F03BC0D0
:100C700006F03CC007F03DC008F00A0E096E000EF9
:100C80000A6E000E0B6E000E0C6E000E0D6E000E46
:100C90000E6E000E0F6E000E106ED8EC09F001C043
:100CA00026F002C027F003C028F004C029F005C0D8
:100CB0002AF006C02BF007C02CF008C02DF026C08B
:100CC00013F028C014F0E7EC0DF01350300FDF6E76
:100CD0003006D8A031063206D8A0330636C001F05F
:100CE00037C002F038C003F039C004F03AC005F054
:100CF0003BC006F03CC007F03DC008F00A0E096E8C
:100D0000000E0A6E000E0B6E000E0C6E000E0D6EC5
:100D1000000E0E6E000E0F6E000E106E14EC09F039
:100D200001C036F002C037F003C038F004C039F01B
:100D300005C03AF006C03BF007C03CF008C03DF0EB
:100D40003FBEABEF06F03F5008E13E04D8A0ABEF4A
:100D500006F0ADEF06F0DEEF06F036503710381033
:100D600039103A103B103C103D10D8A4BAEF06F0F1
:100D7000BCEF06F024EF06F031BEC9EF06F03150AB
:100D800006E13004D8B0C7EF06F0C9EF06F024EF53
:100D900006F033BED4EF06F0335008E13204D8A099
:100DA000D4EF06F0D6EF06F0DEEF06F0000166B3F2
:100DB000DCEF06F0DEEF06F024EF06F034503510DD
:100DC000D8A4E5EF06F0E7EF06F0EFEF06F000013C
:100DD00066A5EDEF06F0EFEF06F00DEF07F03E062B
:100DE000D8A03F0634503510D8A4F9EF06F0FBEF39
:100DF00006F001EF07F0000E2F6E2B0E2E6E05EFA2
:100E000007F0000E2F6E2D0E2E6E6B0E3E24D96E47
:100E1000000E3F20DA6E2EC0DFFF1CC011F01DC097
:100E200012F06B0E3E24136E000E3F20146E32C083
:100E300015F033C016F06DEC0BF011C01CF012C0B1
:100E40001DF01200F00E936EF00E8A6E8150F00BC2
:100E500000016A6FF00E6A19D8A431EF07F033EF82
:100E600007F026EF07F08150F00B6A6FF00E6A1959
:100E7000D8A43DEF07F03FEF07F026EF07F04E0E46
:100E8000016EEB0EE82EFED7012EFCD700F0F00E1F
:100E90008A6E8150F00B00016A6FF00E6A19D8B4A7
:100EA00054EF07F056EF07F049EF07F08150F00BD1
:100EB0006A6FF00E6A19D8B460EF07F062EF07F0BE
:100EC00049EF07F04E0E016EEB0EE82EFED7012E15
:100ED000FCD700F08150F00B00016A6FFE0E8A6EA5
:100EE0008150F00B6A6F6AC068F0F00E6A19D8B4CE
:100EF0007CEF07F07EEF07F090EF07F0000E696FD0
:100F000085EF07F08150F00B686FF00E6819D8A4D8
:100F10008CEF07F08EEF07F082EF07F0F4EF07F0A9
:100F2000FD0E8A6E8150F00B6A6F6AC068F0F00E99
:100F30006A19D8B49EEF07F0A0EF07F0B2EF07F000
:100F4000010E696FA7EF07F08150F00B686FF00E8C
:100F50006819D8A4AEEF07F0B0EF07F0A4EF07F0E0
:100F6000F4EF07F0FB0E8A6E8150F00B6A6F6AC0D7
:100F700068F0F00E6A19D8B4C0EF07F0C2EF07F0BE
:100F8000D4EF07F0020E696FC9EF07F08150F00B44
:100F9000686FF00E6819D8A4D0EF07F0D2EF07F011
:100FA000C6EF07F0F4EF07F0F70E8A6E8150F00BF2
:100FB0006A6F6AC068F0F00E6A19D8B4E2EF07F001
:100FC000E4EF07F06EEF07F0030E696FEBEF07F049
:100FD0008150F00B686FF00E6819D8A4F2EF07F09B
:100FE000F4EF07F0E8EF07F0E00E6A19D8A4FBEF82
:100FF00007F0FDEF07F008EF08F06951040DB00E9F
:10100000F324D96E000EF420DA6EDF5039EF08F0C9
:10101000D00E6A19D8A40FEF08F011EF08F01CEFFA
:1010200008F06951040DB10EF324D96E000EF420BE
:10103000DA6EDF5039EF08F0B00E6A19D8A423EF4A
:1010400008F025EF08F030EF08F06951040DB20EFA
:10105000F324D96E000EF420DA6EDF5039EF08F079
:101060006951040DB30EF324D96E000EF420DA6E2C
:10107000DF50120042C0D9FF43C0DAFFDECFF6FFD7
:10108000DDCFF7FF0800F550250AD8A44AEF08F095
:101090004CEF08F0F8EF08F042C0D9FF43C0DAFF88
:1010A000DE2A000EDD22000E0001636F000E626F6B
:1010B00062C066F063C067F06469656942C0D9FFC9
:1010C00043C0DAFFDECFF6FFDDCFF7FF0800F550B3
:1010D000640AD8B46EEF08F070EF08F082EF08F001
:1010E00042C0D9FF43C0DAFFDECFF6FFDDCFF7FF06
:1010F0000800F550690AD8A480EF08F082EF08F0E4
:10110000C2EF08F042C0D9FF43C0DAFFDE2A000E6A
:10111000DD2244C0D9FF45C0DAFFDFCF46F0020E22
:10112000DE26DFCF47F0000EDD2246C0D9FF47C0E4
:10113000DAFFDECF48F0DDCF49F0000E49BEFF0EEA
:101140004A6E4B6E4C6E4D6E4E6E4F6E40C01CF034
:1011500041C01DF048C01EF049C01FF04AC020F039
:101160004BC021F04CC022F04DC023F04EC024F003
:101170004FC025F0B1EC05F01CC040F01DC041F09F
:1011800013EF09F042C0D9FF43C0DAFFDECFF6FF0C
:10119000DDCFF7FF0800F550250AD8A4D2EF08F0FC
:1011A000D4EF08F0EBEF08F042C0D9FF43C0DAFFFC
:1011B000DE2A000EDD22000E026E250E016E40C0FA
:1011C00003F041C004F008EC0BF0000E416E010E7C
:1011D000406E13EF09F042C0D9FF43C0DAFFDE2AA8
:1011E000000EDD22000E416E000E406E13EF09F07E
:1011F00042C0D9FF43C0DAFFDECFF6FFDDCFF7FFF5
:101200000800F550016E026A40C003F041C004F0CE
:1012100008EC0BF042C0D9FF43C0DAFFDE2A000E13
:10122000DD22E5EF08F01200000E126E10BE1DEF79
:1012300009F01BEF09F02FEF09F0101E0F1E0E1E14
:101240000D1E0C1E0B1E0A1E096C000E0A220B221C
:101250000C220D220E220F221022010E126E08BE49
:1012600036EF09F034EF09F048EF09F0081E071EC9
:10127000061E051E041E031E021E016C000E022225
:10128000032204220522062207220822010E121A36
:1012900020EE13F0070EDE6AE806FDE209500A10A0
:1012A0000B100C100D100E100F101010D8B45BEFB7
:1012B00009F05DEF09F0AFEF09F0010E116E6BEF71
:1012C00009F0D89009360A360B360C360D360E3634
:1012D0000F361036112A10AE70EF09F072EF09F0D8
:1012E00061EF09F0D89013361436153616361736D6
:1012F000183619361A360950015C0A5002580B503C
:1013000003580C5004580D5005580E5006580F50F5
:10131000075810500858D8A090EF09F092EF09F044
:10132000A3EF09F00950015E0A50025A0B50035A0C
:101330000C50045A0D50055A0E50065A0F50075AB9
:101340001050085A1380D89010320F320E320D32DE
:101350000C320B320A320932112E72EF09F01250A0
:10136000D8B4B5EF09F0B7EF09F0C7EF09F01A1ECE
:10137000191E181E171E161E151E141E136C000EA5
:101380001422152216221722182219221A2213C0FB
:1013900001F014C002F015C003F016C004F017C02D
:1013A00005F018C006F019C007F01AC008F01200C6
:1013B000000E126E08BEE1EF09F0DFEF09F0F3EF67
:1013C00009F0081E071E061E051E041E031E021E2F
:1013D000016C000E022203220422052206220722AB
:1013E0000822010E126E10BEFAEF09F0F8EF09F0B4
:1013F0000AEF0AF0101E0F1E0E1E0D1E0C1E0B1EF5
:101400000A1E096C000E0A220B220C220D220E224B
:101410000F22102209500A100B100C100D100E1084
:101420000F101010D8B417EF0AF019EF0AF061EF9F
:101430000AF0010E116E27EF0AF0D89009360A362D
:101440000B360C360D360E360F361036112A10AE0E
:101450002CEF0AF02EEF0AF01DEF0AF00950015CA4
:101460000A5002580B5003580C5004580D500558A0
:101470000E5006580F50075810500858D8A043EF88
:101480000AF045EF0AF055EF0AF00950015E0A50E4
:10149000025A0B50035A0C50045A0D50055A0E5064
:1014A000065A0F50075A1050085AD89010320F326F
:1014B0000E320D320C320B320A320932112E2EEF5F
:1014C0000AF01250D8B467EF0AF069EF0AF079EF2A
:1014D0000AF0081E071E061E051E041E031E021E1D
:1014E000016C000E0222032204220522062207229A
:1014F000082201C001F002C002F003C003F004C0E2
:1015000004F005C005F006C006F007C007F008C0EB
:1015100008F01200010E146E010E156E0B50075CE0
:101520000F6E0C500858106E03C0D9FF04C0DAFFCC
:10153000DF50116E126A0F50115C1250800A136E48
:101540001050800A1358D8A0A8EF0AF0AAEF0AF0AA
:10155000C6EF0AF003C0D9FF04C0DAFFDF500F6EF8
:10156000106A0B500724116E0C500820126E0F5099
:10157000115C1250800A136E1050800A1358D8B0B4
:10158000C4EF0AF0C6EF0AF0C8EF0AF0000E146EBE
:101590000D50095C0F6E0E500A58106E05C0D9FF31
:1015A00006C0DAFFDF50116E126A0F50115C125044
:1015B000800A136E1050800A1358D8A0E2EF0AF088
:1015C000E4EF0AF000EF0BF005C0D9FF06C0DAFF28
:1015D000DF500F6E106A0D500924116E0E500A2054
:1015E000126E0F50115C1250800A136E1050800A58
:1015F0001358D8B0FEEF0AF000EF0BF002EF0BF03B
:10160000000E156E15C001F01450DBEC0CF012004A
:1016100003500410D8B40FEF0BF011EF0BF01AEFDA
:101620000BF003500410D8A418EF0BF01AEF0BF0D6
:101630001FEF0BF00150FEEC0EF06CEF0BF020EE04
:1016400004F00350D9260450DA22DE50DE10D8B45C
:101650002CEF0BF02EEF0BF049EF0BF020EE04F027
:101660000350D9260450DA2210EE02F00350E1268E
:101670000450E222DE50E65CE650800A096EDE503D
:10168000800A0958D8B047EF0BF049EF0BF06CEF28
:101690000BF020EE02F00350D9260450DA22DECF00
:1016A00005F0DDCF06F003C0D9FF04C0DAFFDECFBE
:1016B00007F0DDCF08F005500724D96E065008204A
:1016C000DA6E01C0DFFF20EE02F00350D92604508D
:1016D000DA22DE2A000EDD221200000166A173EF7D
:1016E0000BF075EF0BF07FEF0BF013C00AF014C096
:1016F0000BF011C00CF012C00DF0C5EC0DF016BED1
:1017000084EF0BF086EF0BF08CEF0BF015C01AF0A6
:1017100016C01BF090EF0BF0000E1B6E000E1A6E41
:10172000000E196E000E186EA2EF0BF0000E026E86
:10173000200E016E11C003F012C004F008EC0BF093
:10174000184A192A1A50185C1950800A176E1B5033
:10175000800A1758D8A0AFEF0BF0B1EF0BF096EF5F
:101760000BF0000166B1B7EF0BF0B9EF0BF0C3EF70
:101770000BF013C00AF014C00BF011C00CF012C033
:101780000DF0C5EC0DF013C001F014C002F061ECD7
:101790000EF01A500124116E1B500220126E12001E
:1017A000ACEC0EF0000E056E0AC006F00BC007F0A0
:1017B000000E07EC0EF0C00E57EC0DF0000E136E8D
:1017C000000E126EF4EF0BF022EC07F0146E1450C2
:1017D0002FEC0DF012500C24D96E13500D20DA6E40
:1017E00014C0DFFF124A132A0E50125C1350800AF5
:1017F000106E0F50800A1058D8A001EF0CF003EFC4
:101800000CF0E4EF0BF0020E116E040E106EBA0E27
:10181000E82EFED7102EFCD7112EFAD700D0ACEC54
:101820000EF01200000E0B6E000E0A6E000E0D6E12
:10183000000E0C6E07C0D9FF08C0DAFFDF50096E3A
:10184000D00E09240E6E0F6AFF0E0F2220EE01F05B
:101850000750D9260850DA22DF50096ED00E09242D
:101860000A6E0B6AFF0E0B220EC001F00FC002F0D1
:10187000000E046E0A0E036EC1EC0EF001C00EF0F5
:1018800002C00FF00A500E240C6E0B500F200D6E8C
:101890000CC007F00DC008F0120052C056F053C043
:1018A00057F0000E0001616F000E606F6BEF0CF0DF
:1018B00050C040F051C041F0560E426E000E436ED3
:1018C00054C044F055C045F03AEC08F040500001D7
:1018D00060274150612356C0F6FF57C0F7FF08004C
:1018E000F5500009D8A477EF0CF079EF0CF058EF21
:1018F0000CF060C050F061C051F0120094EF0CF099
:1019000003C0F6FF04C0F7FFF86A070EF76403D0C0
:101910000800F55005D0F6CFE1FFF7CFE2FFE75022
:101920002FEC0DF0034A042A03C0F6FF04C0F7FFB2
:10193000F86A070EF76403D00800F55005D0F6CF1B
:10194000E1FFF7CFE2FFE7500009D8A4AAEF0CF0BF
:10195000ACEF0CF080EF0CF01200000E026E000EE7
:10196000016E80A0B6EF0CF0B8EF0CF0B1EF0CF008
:10197000140EE82EFED780A0C0EF0CF0C2EF0CF0E2
:10198000C6EF0CF0D8800236C9EF0CF002500224EA
:10199000026E80B0CEEF0CF0D0EF0CF0C9EF0CF07F
:1019A000012A070E0164D7EF0CF0D9EF0CF0B1EF6C
:1019B0000CF002501200026EF4EC0EF00250D8A4AB
:1019C000E4EF0CF0E6EF0CF0F1EF0CF00150D8A4CE
:1019D000ECEF0CF0EEEF0CF0F1EF0CF08D8005EF7A
:1019E0000DF00250D8B4F7EF0CF0F9EF0CF001EF66
:1019F0000DF00150D8A4FFEF0CF001EF0DF004EF53
:101A00000DF08D8205EF0DF08D8412005C0E00014B
:101A10008B6F000E8C6F58C08DF059C08EF0000E89
:101A2000906F000E8F6F000E926F000E916F8D0EF3
:101A3000506E000E516E5AC052F05BC053F08B0EC8
:101A4000546E000E556E4DEC0CF000018F51582471
:101A5000D96E90515920DA6E000EDF6E1200026EC0
:101A600002C001F0F00E01168C500F0B01108C6EAD
:101A70008C808C8200F08C92030E016E980EE82E02
:101A8000FED7012EFCD702C001F0013AF00E01167C
:101A90008C500F0B01108C6E8C8200F08C92080E13
:101AA000016ECA0EE82EFED7012EFCD71200026E80
:101AB00002C001F0F00E01168C500F0B01108C6E5D
:101AC0008C908C8200F08C92030E016E980EE82EA2
:101AD000FED7012EFCD702C001F0013AF00E01162C
:101AE0008C500F0B01108C6E8C8200F08C92080EC3
:101AF000016ECA0EE82EFED7012EFCD7120001C0DF
:101B0000D9FF02C0DAFFDF50076E086A05500324D0
:101B1000096E065004200A6E0750095C0A50800ABC
:101B20000B6E0850800A0B58D8B099EF0DF09BEF60
:101B30000DF09FEF0DF08B848B8CA1EF0DF0F8EC86
:101B40000EF012000550035C076E06500458086E34
:101B500001C0D9FF02C0DAFFDF50096E0A6A0750E0
:101B6000095C0A50800A0B6E0850800A0B58D8B0E6
:101B7000BCEF0DF0BEEF0DF0C2EF0DF08B808B824D
:101B8000C4EF0DF08B908B921200000E106E000EC1
:101B90000F6ED6EF0DF00EC001F0026A0CC003F01C
:101BA0000DC004F008EC0BF00F4A102A0F500A2465
:101BB000D96E10500B20DA6EDF500E6E0E50D8A486
:101BC000E4EF0DF0E6EF0DF0CBEF0DF0120014BED8
:101BD000F4EF0DF0145006E11304D8B0F2EF0DF05D
:101BE000F4EF0DF002EF0EF013C015F014C016F074
:101BF000151E161E154A162A15C013F016C014F02D
:101C000006EF0EF013C013F014C014F01200086EAB
:101C1000020E08600EEF0EF010EF0EF019EF0EF04E
:101C200005500F0B8009096E095057EC0DF020EF9D
:101C30000EF005500F0BC009096E095057EC0DF05E
:101C400006C003F007C004F07EEC0CF01200E4ECD8
:101C50000EF096EC0EF0ADEC0CF0056EADEC0CF069
:101C6000ADEC0CF0066EADEC0CF0ADEC0CF003C07E
:101C7000D9FF04C0DAFF06C0DFFF20EE01F00350F9
:101C8000D9260450DA2205C0DFFF1200A80EF66E36
:101C90001D0EF76E000EF86E00EEB0F010EE20F0A4
:101CA0000900F5CFEEFFE550E150FAE100EE60F0FB
:101CB0002B0EEE6AE806FDE1000EF86E000128EF3B
:101CC00004F001C003F002C004F069EF0EF0014A15
:101CD000022A01C0D9FF02C0DAFFDF50D8A473EF97
:101CE0000EF075EF0EF067EF0EF00350015C016E21
:101CF00004500258026E1200000E956E270E036EFD
:101D0000F50EE82EFED7032EFCD700F0020E57EC9E
:101D10000DF0280E57EC0DF0010E57EC0DF00C0EE7
:101D200057EC0DF0060E57EC0DF0120080B09BEF53
:101D30000EF09DEF0EF096EF0EF080A0A2EF0EF0E9
:101D4000A4EF0EF09DEF0EF080B0A9EF0EF0ABEF18
:101D50000EF0A4EF0EF01200010E57EC0DF0080E7D
:101D6000036ECA0EE82EFED7032EFCD7800E57EC6A
:101D70000DF0030E036E980EE82EFED7032EFCD74F
:101D8000120001500302F3CF05F0F4CF06F001502A
:101D90000402F350062602500302F350062605C043
:101DA00001F006C002F012003132332F3435362AEA
:101DB0003738392D2A30232B3132334134353642EE
:101DC000373839432A302344929089902F0E016E80
:101DD000C00EE82EFED7012EFCD789800D0EE82E0E
:101DE000FED700F0928012008D928D908D9412009B
:0E1DF0008B948B9C12008B908B921200120031
:020000040020DA
:08000000FFFFFFFFFFFFFFFF00
:020000040030CA
:0E00000000091F1EFF8181FF0FC00FE00F409F
:00000001FF
