:0400000040EF0EF0CF
:100800000054656D702E20416465637561646100FC
:100810004D676E204572726F722054656D7000488E
:10082000756D2E204164656375616461004D676E6E
:10083000204572726F722048756D00432054656DBB
:0F084000702E00202048756D2E002E25640000BC
:100850001EC036F01FC037F020C038F021C039F07C
:1008600022C03AF023C03BF024C03CF025C03DF04C
:100870003DBE3DEF04F040EF04F0010E41EF04F007
:10088000000E346E356A34503510D8B44AEF04F097
:100890004CEF04F05CEF04F03D1E3C1E3B1E3A1E84
:1008A000391E381E371E366C000E37223822392288
:1008B0003A223B223C223D22000165BF62EF04F058
:1008C00064EF04F065EF04F0669365BF72EF04F027
:1008D000655106E16405D8B070EF04F072EF04F0E2
:1008E00078EF04F0000E316E010E306E7CEF04F0F4
:1008F00064C030F065C031F062C032F063C033F0E4
:1009000034503510D8A487EF04F089EF04F090EF4D
:1009100004F066A58EEF04F090EF04F093EF04F07E
:100920003206D8A03306000E3F6E1F0E3E6E000E3C
:10093000926F17EF05F03E06D8A03F06730E3E24D7
:10094000D96E000E3F20DA6E36C001F037C002F0DB
:1009500038C003F039C004F03AC005F03BC006F0DF
:100960003CC007F03DC008F00A0E096E000E0A6E8A
:10097000000E0B6E000E0C6E000E0D6E000E0E6E55
:10098000000E0F6E000E106E46EC08F001C026F04F
:1009900002C027F003C028F004C029F005C02AF0E7
:1009A00006C02BF007C02CF008C02DF026C013F0B5
:1009B00028C014F0E1EC0DF01350300FDF6E30065C
:1009C000D8A031063206D8A0330636C001F037C0B1
:1009D00002F038C003F039C004F03AC005F03BC063
:1009E00006F03CC007F03DC008F00A0E096E000E8C
:1009F0000A6E000E0B6E000E0C6E000E0D6E000ED9
:100A00000E6E000E0F6E000E106E82EC07F001C02D
:100A100036F002C037F003C038F004C039F005C02A
:100A20003AF006C03BF007C03CF008C03DF03FBEC6
:100A300022EF05F03F5008E13E04D8A022EF05F078
:100A400024EF05F055EF05F0365037103810391007
:100A50003A103B103C103D10D8A431EF05F033EFB5
:100A600005F09BEF04F031BE40EF05F0315006E198
:100A70003004D8B03EEF05F040EF05F09BEF04F0F6
:100A800033BE4BEF05F0335008E13204D8A04BEFF2
:100A900005F04DEF05F055EF05F0000166B353EF9B
:100AA00005F055EF05F09BEF04F034503510D8A455
:100AB0005CEF05F05EEF05F066EF05F0000166A55E
:100AC00064EF05F066EF05F084EF05F03E06D8A070
:100AD0003F0634503510D8A470EF05F072EF05F0E2
:100AE00078EF05F0000E2F6E2B0E2E6E7CEF05F0CA
:100AF000000E2F6E2D0E2E6E730E3E24D96E000E3C
:100B00003F20DA6E2EC0DFFF1CC011F01DC012F0B6
:100B1000730E3E24136E000E3F20146E32C015F08B
:100B200033C016F088EC0AF011C01CF012C01DF0A2
:100B30001200F00E936EF00E8A6E8150F00B0001E1
:100B4000726FF00E7219D8A4A8EF05F0AAEF05F0A5
:100B50009DEF05F08150F00B726FF00E7219D8A462
:100B6000B4EF05F0B6EF05F09DEF05F04E0E016E07
:100B7000EB0EE82EFED7012EFCD700F0F00E8A6EA9
:100B80008150F00B0001726FF00E7219D8B4CBEFE8
:100B900005F0CDEF05F0C0EF05F08150F00B726F5E
:100BA000F00E7219D8B4D7EF05F0D9EF05F0C0EF09
:100BB00005F04E0E016EEB0EE82EFED7012EFCD78F
:100BC00000F08150F00B0001726FFE0E8A6E8150B2
:100BD000F00B726F72C070F0F00E7219D8B4F3EFB0
:100BE00005F0F5EF05F007EF06F0000E716FFCEF72
:100BF00005F08150F00B706FF00E7019D8A403EF60
:100C000006F005EF06F0F9EF05F06DEF06F0FD0ECA
:100C10008A6E8150F00B726F72C070F0F00E721914
:100C2000D8B415EF06F017EF06F029EF06F0010E25
:100C3000716F1EEF06F08150F00B706FF00E70199F
:100C4000D8A425EF06F027EF06F01BEF06F06DEFB6
:100C500006F0FB0E8A6E8150F00B726F72C070F05E
:100C6000F00E7219D8B437EF06F039EF06F04BEFFB
:100C700006F0020E716F40EF06F08150F00B706FBE
:100C8000F00E7019D8A447EF06F049EF06F03DEFDB
:100C900006F06DEF06F0F70E8A6E8150F00B726F62
:100CA00072C070F0F00E7219D8B459EF06F05BEF15
:100CB00006F0E5EF05F0030E716F62EF06F081506C
:100CC000F00B706FF00E7019D8A469EF06F06BEF9F
:100CD00006F05FEF06F06DEF06F0E00E7219D8A493
:100CE00074EF06F076EF06F081EF06F07151030D18
:100CF000A50EF324D96E000EF420DA6EDF50A7EFB4
:100D000006F0D00E7219D8A488EF06F08AEF06F02C
:100D100095EF06F07151030DA60EF324D96E000E67
:100D2000F420DA6EDF50A7EF06F0B00E7219D8A4E7
:100D30009CEF06F09EEF06F06DEF06F07151030D8B
:100D4000A70EF324D96E000EF420DA6EDF501200E5
:100D500042C0D9FF43C0DAFFDECFF6FFDDCFF7FF99
:100D60000800F550250AD8A4B8EF06F0BAEF06F04F
:100D700066EF07F042C0D9FF43C0DAFFDE2A000E5B
:100D8000DD22000E0001636F000E626F62C066F02C
:100D900063C067F06469656942C0D9FF43C0DAFF88
:100DA000DECFF6FFDDCFF7FF0800F550640AD8B4B8
:100DB000DCEF06F0DEEF06F0F0EF06F042C0D9FF00
:100DC00043C0DAFFDECFF6FFDDCFF7FF0800F550B6
:100DD000690AD8A4EEEF06F0F0EF06F030EF07F066
:100DE00042C0D9FF43C0DAFFDE2A000EDD2244C034
:100DF000D9FF45C0DAFFDFCF46F0020EDE26DFCF97
:100E000047F0000EDD2246C0D9FF47C0DAFFDECF33
:100E100048F0DDCF49F0000E49BEFF0E4A6E4B6E22
:100E20004C6E4D6E4E6E4F6E40C01CF041C01DF0BA
:100E300048C01EF049C01FF04AC020F04BC021F04E
:100E40004CC022F04DC023F04EC024F04FC025F01E
:100E500028EC04F01CC040F01DC041F081EF07F009
:100E600042C0D9FF43C0DAFFDECFF6FFDDCFF7FF88
:100E70000800F550250AD8A440EF07F042EF07F02C
:100E800059EF07F042C0D9FF43C0DAFFDE2A000E57
:100E9000DD22000E026E250E016E40C003F041C03F
:100EA00004F023EC0AF0000E416E010E406E81EF5B
:100EB00007F042C0D9FF43C0DAFFDE2A000EDD2270
:100EC000000E416E000E406E81EF07F042C0D9FF68
:100ED00043C0DAFFDECFF6FFDDCFF7FF0800F550A5
:100EE000016E026A40C003F041C004F023EC0AF036
:100EF00042C0D9FF43C0DAFFDE2A000EDD2253EFE5
:100F000007F01200000E126E10BE8BEF07F089EF93
:100F100007F09DEF07F0101E0F1E0E1E0D1E0C1E7B
:100F20000B1E0A1E096C000E0A220B220C220D2237
:100F30000E220F221022010E126E08BEA4EF07F03F
:100F4000A2EF07F0B6EF07F0081E071E061E051EEB
:100F5000041E031E021E016C000E02220322042244
:100F60000522062207220822010E121A20EE13F093
:100F7000070EDE6AE806FDE209500A100B100C109D
:100F80000D100E100F101010D8B4C9EF07F0CBEFF2
:100F900007F01DEF08F0010E116ED9EF07F0D890A1
:100FA00009360A360B360C360D360E360F3610362D
:100FB000112A10AEDEEF07F0E0EF07F0CFEF07F0F9
:100FC000D8901336143615361636173618361936A5
:100FD0001A360950015C0A5002580B5003580C5045
:100FE00004580D5005580E5006580F500758105011
:100FF0000858D8A0FEEF07F000EF08F011EF08F056
:101000000950015E0A50025A0B50035A0C50045A00
:101010000D50055A0E50065A0F50075A1050085AD4
:101020001380D89010320F320E320D320C320B3248
:101030000A320932112EE0EF07F01250D8B423EF34
:1010400008F025EF08F035EF08F01A1E191E181EDB
:10105000171E161E151E141E136C000E14221522C8
:1010600016221722182219221A2213C001F014C0C6
:1010700002F015C003F016C004F017C005F018C048
:1010800006F019C007F01AC008F01200000E126E28
:1010900008BE4FEF08F04DEF08F061EF08F0081EB2
:1010A000071E061E051E041E031E021E016C000EF6
:1010B0000222032204220522062207220822010E10
:1010C000126E10BE68EF08F066EF08F078EF08F0D7
:1010D000101E0F1E0E1E0D1E0C1E0B1E0A1E096C6E
:1010E000000E0A220B220C220D220E220F221022A9
:1010F00009500A100B100C100D100E100F101010CC
:10110000D8B485EF08F087EF08F0CFEF08F0010EB4
:10111000116E95EF08F0D89009360A360B360C366A
:101120000D360E360F361036112A10AE9AEF08F033
:101130009CEF08F08BEF08F00950015C0A50025850
:101140000B5003580C5004580D5005580E500658BB
:101150000F50075810500858D8A0B1EF08F0B3EF5F
:1011600008F0C3EF08F00950015E0A50025A0B5014
:10117000035A0C50045A0D50055A0E50065A0F507F
:10118000075A1050085AD89010320F320E320D32D2
:101190000C320B320A320932112E9CEF08F0125039
:1011A000D8B4D5EF08F0D7EF08F0E7EF08F0081E45
:1011B000071E061E051E041E031E021E016C000EE5
:1011C000022203220422052206220722082201C04D
:1011D00001F002C002F003C003F004C004F005C037
:1011E00005F006C006F007C007F008C008F01200BE
:1011F000720ED36E0F0EC16EFAEC0EF0E5EC0EF02F
:1012000076EC0EF0FDEC0EF0F7EC0EF0F1EC0EF0DB
:10121000EAEC0EF00001B105D8A411EF09F013EFCC
:1012200009F048EF09F0A10E156E000E166E9F0E24
:10123000176E000E186EA40E196E000E1A6EA30E15
:101240001B6E000E1C6EEBEC0AF0A10E076E000E7A
:10125000086E9CEC0BF007C06AF008C06BF09F0EA4
:10126000076E000E086E9CEC0BF007C068F008C01B
:1012700069F0D00E0001A4256E6F6F6BFF0E6F2317
:10128000D00EA3256C6F6D6BFF0E6D23000EB16F3A
:101290009D0E036E000E046E21EC0EF09D0E036E8B
:1012A000000E046E9E0E056E000E066E6AC007F0FC
:1012B0006BC008F068C009F069C00AF06EC00BF09E
:1012C0006FC00CF06CC00DF06DC00EF0A5EC09F015
:1012D0009E0E016E000E026E68C003F069C004F03D
:1012E0006CC005F06DC006F09CEC0DF09D0E016E1B
:1012F000000E026E6AC003F06BC004F06EC005F011
:101300006FC006F079EC0DF0930E0001BA6F000E7D
:10131000BB6F9EC0BCF00FEC0CF0930E0001BA6FD7
:10132000000EBB6F9DC0BCF0D7EC0BF0060E5F6EDD
:10133000130E5E6EAE0EE82EFED75E2EFCD75F2E2D
:10134000FAD70AEF09F000EF00F0010E146E010E5B
:10135000156E0B50075C0F6E0C500858106E03C0D2
:10136000D9FF04C0DAFFDF50116E126A0F50115C12
:101370001250800A136E1050800A1358D8A0C3EF81
:1013800009F0C5EF09F0E1EF09F003C0D9FF04C08F
:10139000DAFFDF500F6E106A0B500724116E0C50ED
:1013A0000820126E0F50115C1250800A136E1050FC
:1013B000800A1358D8B0DFEF09F0E1EF09F0E3EF4E
:1013C00009F0000E146E0D50095C0F6E0E500A5895
:1013D000106E05C0D9FF06C0DAFFDF50116E126A29
:1013E0000F50115C1250800A136E1050800A13586F
:1013F000D8A0FDEF09F0FFEF09F01BEF0AF005C0E0
:10140000D9FF06C0DAFFDF500F6E106A0D500924B5
:10141000116E0E500A20126E0F50115C1250800A8D
:10142000136E1050800A1358D8B019EF0AF01BEF52
:101430000AF01DEF0AF0000E156E15C001F01450F1
:10144000D5EC0CF0120003500410D8B42AEF0AF0C7
:101450002CEF0AF035EF0AF003500410D8A433EF54
:101460000AF035EF0AF03AEF0AF00150FFEC0EF007
:1014700087EF0AF020EE04F00350D9260450DA2258
:10148000DE50DE10D8B447EF0AF049EF0AF064EFFF
:101490000AF020EE04F00350D9260450DA2210EEB0
:1014A00002F00350E1260450E222DE50E65CE650F2
:1014B000800A096EDE50800A0958D8B062EF0AF03F
:1014C00064EF0AF087EF0AF020EE02F00350D9260D
:1014D0000450DA22DECF05F0DDCF06F003C0D9FFDD
:1014E00004C0DAFFDECF07F0DDCF08F00550072497
:1014F000D96E06500820DA6E01C0DFFF20EE02F040
:101500000350D9260450DA22DE2A000EDD22120012
:10151000000166A18EEF0AF090EF0AF09AEF0AF050
:1015200013C00AF014C00BF011C00CF012C00DF083
:10153000BFEC0DF016BE9FEF0AF0A1EF0AF0A7EF87
:101540000AF015C01AF016C01BF0ABEF0AF0000E3F
:101550001B6E000E1A6E000E196E000E186EBDEF97
:101560000AF0000E026E200E016E11C003F012C0D0
:1015700004F023EC0AF0184A192A1A50185C195082
:10158000800A176E1B50800A1758D8A0CAEF0AF0BD
:10159000CCEF0AF0B1EF0AF0000166B1D2EF0AF029
:1015A000D4EF0AF0DEEF0AF013C00AF014C00BF01B
:1015B00011C00CF012C00DF0BFEC0DF013C001F023
:1015C00014C002F05BEC0EF01A500124116E1B5097
:1015D0000220126E1200010E0A6E080E0B6E15C06C
:1015E0000CF016C00DF0000E0F6E020E0E6E48ECE1
:1015F0000BF0020E1E6E040E1D6EBA0EE82EFED704
:101600001D2EFCD71E2EFAD700D0100E0A6E080E23
:101610000B6E19C00CF01AC00DF0000E0F6E010E0B
:101620000E6E48EC0BF0020E1E6E040E1D6EBA0E0E
:10163000E82EFED71D2EFCD71E2EFAD700D01F0E87
:101640000A6E080E0B6E17C00CF018C00DF0000EDD
:101650000F6E020E0E6E48EC0BF0020E1E6E040EA4
:101660001D6EBA0EE82EFED71D2EFCD71E2EFAD701
:1016700000D02D0E0A6E080E0B6E1BC00CF01CC0A5
:101680000DF0000E0F6E010E0E6E48EC0BF0120006
:10169000A6EC0EF0000E056E0AC006F00BC007F0B7
:1016A000000E01EC0EF0C00E51EC0DF0000E136EAA
:1016B000000E126E7EEF0BF099EC05F0146E2A0E00
:1016C0001418D8B466EF0BF068EF0BF05CEF0BF07A
:1016D000230E1418D8B46FEF0BF071EF0BF05CEF22
:1016E0000BF0145029EC0DF012500C24D96E13504D
:1016F0000D20DA6E14C0DFFF124A132A0E50125C5E
:101700001350800A106E0F50800A1058D8A08BEF2B
:101710000BF08DEF0BF05CEF0BF0020E116E040E70
:10172000106EBA0EE82EFED7102EFCD7112EFAD767
:1017300000D0A6EC0EF01200000E0B6E000E0A6E2A
:10174000000E0D6E000E0C6E07C0D9FF08C0DAFF48
:10175000DF50096ED00E09240E6E0F6AFF0E0F22A5
:1017600020EE01F00750D9260850DA22DF50096E2A
:10177000D00E09240A6E0B6AFF0E0B220EC001F078
:101780000FC002F0000E046E0A0E036EBBEC0EF0EA
:1017900001C00EF002C00FF00A500E240C6E0B5068
:1017A0000F200D6E0CC007F00DC008F01200BAC07B
:1017B00058F0BBC059F04B0E5A6E080E5B6EBCC0A1
:1017C0005CF05D6A00EC0DF0000E056EBAC006F02C
:1017D000BBC007F0020E01EC0EF0BAC058F0BBC05F
:1017E00059F04A0E5A6E080E5B6E000E5D6E000ECA
:1017F0005C6E00EC0DF0DF0E29EC0DF0BAC058F075
:10180000BBC059F03B0E5A6E080E5B6E00EC0DF03B
:10181000BAC003F0BBC004F078EC0CF01200BAC000
:1018200058F0BBC059F04B0E5A6E080E5B6EBCC030
:101830005CF05D6A00EC0DF0000E056EBAC006F0BB
:10184000BBC007F0000E01EC0EF0BAC058F0BBC0F0
:1018500059F04A0E5A6E080E5B6E000E5D6E000E59
:101860005C6E00EC0DF0250E29EC0DF0BAC058F0BE
:10187000BBC059F0430E5A6E080E5B6E00EC0DF0C3
:10188000BAC003F0BBC004F078EC0CF0120052C0F8
:1018900056F053C057F0000E0001616F000E606FEC
:1018A00065EF0CF050C040F051C041F0560E426E52
:1018B000000E436E54C044F055C045F0A8EC06F04D
:1018C0004050000160274150612356C0F6FF57C0C9
:1018D000F7FF0800F5500009D8A471EF0CF073EF82
:1018E0000CF052EF0CF060C050F061C051F01200EB
:1018F0008EEF0CF003C0F6FF04C0F7FFF86A070E86
:10190000F76403D00800F55005D0F6CFE1FFF7CF1C
:10191000E2FFE75029EC0DF0034A042A03C0F6FF6A
:1019200004C0F7FFF86A070EF76403D00800F5500B
:1019300005D0F6CFE1FFF7CFE2FFE7500009D8A4CA
:10194000A4EF0CF0A6EF0CF07AEF0CF01200000EF2
:10195000026E000E016E80A0B0EF0CF0B2EF0CF042
:10196000ABEF0CF0140EE82EFED780A0BAEF0CF00F
:10197000BCEF0CF0C0EF0CF0D8800236C3EF0CF0D7
:1019800002500224026E80B0C8EF0CF0CAEF0CF0D7
:10199000C3EF0CF0012A070E0164D1EF0CF0D3EF76
:1019A0000CF0ABEF0CF002501200026EEAEC0EF0FD
:1019B0000250D8A4DEEF0CF0E0EF0CF0EBEF0CF0EF
:1019C0000150D8A4E6EF0CF0E8EF0CF0EBEF0CF0D0
:1019D0008D80FFEF0CF00250D8B4F1EF0CF0F3EF74
:1019E0000CF0FBEF0CF00150D8A4F9EF0CF0FBEF7A
:1019F0000CF0FEEF0CF08D82FFEF0CF08D841200E6
:101A00005C0E0001B26F000EB36F58C0B4F059C045
:101A1000B5F0000EB76F000EB66F000EB96F000E76
:101A2000B86FB40E506E000E516E5AC052F05BC0CB
:101A300053F0B20E546E000E556E47EC0CF00001E0
:101A4000B6515824D96EB7515920DA6E000EDF6EA8
:101A50001200026E02C001F0F00E01168C500F0B46
:101A600001108C6E8C808C8200F08C92030E016EC3
:101A7000980EE82EFED7012EFCD702C001F0013AE5
:101A8000F00E01168C500F0B01108C6E8C8200F042
:101A90008C92080E016ECA0EE82EFED7012EFCD7DE
:101AA0001200026E02C001F0F00E01168C500F0BF6
:101AB00001108C6E8C908C8200F08C92030E016E63
:101AC000980EE82EFED7012EFCD702C001F0013A95
:101AD000F00E01168C500F0B01108C6E8C8200F0F2
:101AE0008C92080E016ECA0EE82EFED7012EFCD78E
:101AF000120001C0D9FF02C0DAFFDF50076E086A8A
:101B000005500324096E065004200A6E0750095C34
:101B10000A50800A0B6E0850800A0B58D8B093EF19
:101B20000DF095EF0DF099EF0DF0EEEC0EF09BEF50
:101B30000DF0F1EC0EF012000550035C076E06503C
:101B40000458086E01C0D9FF02C0DAFFDF50096EE9
:101B50000A6A0750095C0A50800A0B6E0850800A16
:101B60000B58D8B0B6EF0DF0B8EF0DF0BCEF0DF09C
:101B7000F4EC0EF0BEEF0DF0F7EC0EF01200000EDC
:101B8000106E000E0F6ED0EF0DF00EC001F0026A65
:101B90000CC003F00DC004F023EC0AF00F4A102A29
:101BA0000F500A24D96E10500B20DA6EDF500E6EE3
:101BB0000E50D8A4DEEF0DF0E0EF0DF0C5EF0DF004
:101BC000120014BEEEEF0DF0145006E11304D8B06D
:101BD000ECEF0DF0EEEF0DF0FCEF0DF013C015F093
:101BE00014C016F0151E161E154A162A15C013F03D
:101BF00016C014F000EF0EF013C013F014C014F070
:101C00001200086E020E086008EF0EF00AEF0EF0E8
:101C100013EF0EF005500F0B8009096E095051ECBF
:101C20000DF01AEF0EF005500F0BC009096E0950A8
:101C300051EC0DF006C003F007C004F078EC0CF096
:101C40001200CEEC0EF090EC0EF0A7EC0CF0056E4E
:101C5000A7EC0CF0A7EC0CF0066EA7EC0CF0A7ECD0
:101C60000CF003C0D9FF04C0DAFF06C0DFFF20EE8E
:101C700001F00350D9260450DA2205C0DFFF12001C
:101C8000BC0EF66E1D0EF76E000EF86E00EEA5F09F
:101C900010EE0DF00900F5CFEEFFE550E150FAE14E
:101CA00000EE60F0450EEE6AE806FDE1000EF86E0B
:101CB0000001F8EF08F001C003F002C004F063EF88
:101CC0000EF0014A022A01C0D9FF02C0DAFFDF503C
:101CD000D8A46DEF0EF06FEF0EF061EF0EF0035031
:101CE000015C016E04500258026E1200000E956EE7
:101CF000270E036EF50EE82EFED7032EFCD700F05C
:101D0000020E51EC0DF0280E51EC0DF0010E51ECCD
:101D10000DF00C0E51EC0DF0060E51EC0DF0120012
:101D200080B095EF0EF097EF0EF090EF0EF080A0E0
:101D30009CEF0EF09EEF0EF097EF0EF080B0A3EF49
:101D40000EF0A5EF0EF09EEF0EF01200010E51EC1A
:101D50000DF0080E036ECA0EE82EFED7032EFCD738
:101D6000800E51EC0DF0030E036E980EE82EFED798
:101D7000032EFCD7120001500302F3CF05F0F4CF7D
:101D800006F001500402F350062602500302F350FD
:101D9000062605C001F006C002F01200929089905C
:101DA0002F0E016EC00EE82EFED7012EFCD78980C3
:101DB0000D0EE82EFED700F092801200313233343F
:091DC00035363738392A30230189
:101DCA00000E946E000E966E12008D928D908D9478
:101DDA0012008B848B8C12008B948B9C12008B804C
:101DEA008B8212008B908B921200000E956E12005D
:061DFA00F19E1200120030
:020000040020DA
:08000000FFFFFFFFFFFFFFFF00
:020000040030CA
:0E00000000091F1EFF8181FF0FC00FE00F409F
:00000001FF
