:04000000D5EF0BF03D
:100800000054656D702E20416465637561646100FC
:0108100000E7
:100812000450800B0D6E04500424136E03AE14EFCB
:1008220004F016EF04F017EF04F013801350D8B45D
:100832001DEF04F01FEF04F032EF04F01328D8A4E8
:1008420025EF04F027EF04F02FEF04F0000E016E05
:10085200000E026E000E036E000E046E038E3AEF5F
:1008620004F0000E016E000E026E000E036E000E0A
:10087200046E0850800B0D1A08500824126E07AE41
:1008820045EF04F047EF04F048EF04F012801250F5
:10089200D8B44EEF04F050EF04F063EF04F01228E6
:1008A200D8A456EF04F058EF04F060EF04F0000E05
:1008B200056E000E066E000E076E000E086E078EA5
:1008C2006BEF04F0000E056E000E066E000E076E52
:1008D200000E086E1250D8B471EF04F073EF04F0FA
:1008E2007BEF04F01350D8A479EF04F07BEF04F00F
:1008F20085EF04F0000E016E000E026E000E036E14
:10090200000E046E1DEF06F007500102F3CF18F03F
:10091200F4CF19F018500E6E0F6A106A116A19504E
:10092200146E156A166A176A06500202F3CF18F09F
:10093200F4CF19F018500E26000E0F2210221122A9
:1009420019501426000E15221622172205500302F2
:10095200F3CF18F0F4CF19F018500E26000E0F2224
:100962001022112219501426000E152216221722C7
:1009720010C011F00FC010F00EC00FF00E6A05503B
:100982000202F3CF18F0F4CF19F018500E261950C6
:100992000F22000E1022000E112206500102F3CF88
:1009A20018F0F4CF19F018500E2619500F22000E2D
:1009B2001022000E112210C011F00FC010F00EC054
:1009C2000FF00E6A05500102F3CF18F0F4CF19F0C0
:1009D20018500E2619500F22000E1022000E11225E
:1009E20007500202F3CF18F0F4CF19F01850142672
:1009F20019501522000E1622000E1722065003026D
:100A0200F3CF18F0F4CF19F018501426195015220C
:100A1200000E1622000E172207500302F3CF18F021
:100A2200F4CF19F01850096E19500A6E0B6A0C6A4D
:100A32000BC00CF00AC00BF009C00AF0096A095099
:100A420014260A5015220B5016220C5017220EC0E3
:100A520009F00FC00AF010C00BF011C00CF0190E13
:100A620038EF05F0D8900C320B320A320932E82EF8
:100A720033EF05F0095014260A5015220B501622A6
:100A82000C50172210C011F00FC010F00EC00FF062
:100A92000E6A125013C009F00A6A0926000E0A22D1
:100AA200820E0924186EFF0E0A20196E6EEF05F0F1
:100AB200D890143615361636173611AE63EF05F098
:100AC20065EF05F066EF05F01480D8900E360F360C
:100AD200103611361806D8A0190616AE73EF05F0B7
:100AE20075EF05F059EF05F0000E126E11AE7CEFB6
:100AF20005F07EEF05F0A2EF05F0FF0E0E14096E71
:100B0200FF0E0F140A6EFF0E10140B6E7F0E1114DF
:100B12000C6E09500A100B100C10D8B493EF05F0AC
:100B220095EF05F099EF05F0010E126EA2EF05F0B8
:100B320014A09EEF05F0A0EF05F0A2EF05F095EFEF
:100B420005F01250D8B4A8EF05F0AAEF05F0CEEFE9
:100B520005F0010E1426000E15221622172217A0E8
:100B6200B5EF05F0B7EF05F0CEEF05F014C009F0D0
:100B720015C00AF016C00BF017C00CF00C340C3282
:100B82000B320A32093209C014F00AC015F00BC048
:100B920016F00CC017F0184A192A19BED9EF05F041
:100BA200195008E11828D8A0D9EF05F0DBEF05F0BD
:100BB200E5EF05F0000E146E000E156E800E166E37
:100BC2007F0E176E13EF06F019BEF2EF05F0195003
:100BD20006E11804D8B0F0EF05F0F2EF05F0FEEFF1
:100BE20005F0000E146E000E156E000E166E000E4D
:100BF200176E000E0D6E13EF06F018C013F0FF0E05
:100C02001416FF0E15167F0E1616000E171613A0D9
:100C12000DEF06F00FEF06F010EF06F0168ED890EB
:100C22001330176E0D50171214C001F015C002F0E8
:100C320016C003F017C004F012001D50800B2A6E7C
:100C42001D501D24316E1CAE29EF06F02BEF06F06D
:100C52002CEF06F031803150D8B432EF06F034EF89
:100C620006F049EF06F03128D8A43AEF06F03CEF3F
:100C720006F044EF06F0000E1A6E000E1B6E000E18
:100C82001C6E000E1D6E1C8E000E1D6E51EF06F0C6
:100C9200000E1A6E000E1B6E000E1C6E000E1D6EF4
:100CA2002150800B2A1A21502124326E20AE5CEF93
:100CB20006F05EEF06F05FEF06F032803250D8B4F5
:100CC20065EF06F067EF06F07CEF06F03228D8A455
:100CD2006DEF06F06FEF06F077EF06F0000E1E6E76
:100CE200000E1F6E000E206E000E216E208E000E72
:100CF200216E84EF06F0000E1E6E000E1F6E000EB7
:100D0200206E000E216E1E501F1020102110D8A43C
:100D12008DEF06F08FEF06F0A7EF06F0000E1A6EC9
:100D2200000E1B6E000E1C6E000E1D6E800E1C123D
:100D32007F0E1D122A501D121AC01AF01BC01BF082
:100D42001CC01CF01DC01DF0EAEF07F03150D8A402
:100D5200ADEF06F0AFEF06F0B9EF06F0000E1A6E37
:100D6200000E1B6E000E1C6E000E1D6EEAEF07F0E9
:100D7200325031C022F0236A225E000E235A7F0EC7
:100D820022242B6E000E23202C6E1AC026F01BC0CC
:100D920027F01CC028F01DC029F0000E1A6E000EAC
:100DA2001B6E000E1C6E000E1D6E000E2D6E000ED0
:100DB2002E6E000E2F6E000E306E000E326E1AEF87
:100DC20007F03250D8B4E8EF06F0EAEF06F001EF90
:100DD20007F0D8902636273628362936D8901A3684
:100DE2001B361C361D3630AEF9EF06F0FBEF06F06F
:100DF200FCEF06F01A80D8902D362E362F3630367C
:100E02001E50265C1F502758205028582150295820
:100E1200D8A00EEF07F010EF07F019EF07F0308CB3
:100E22001E50265E1F50275A2050285A2150295AF8
:100E3200322A190E326420EF07F022EF07F0E2EFB8
:100E420006F02650271028102910D8B42BEF07F0EF
:100E52002DEF07F045EF07F02D8045EF07F0D89012
:100E62001A361B361C361D3630AE3AEF07F03CEF11
:100E720007F03DEF07F01A80D8902D362E362F3628
:100E820030362B06D8A02C061CAE4AEF07F04CEFEA
:100E920007F030EF07F0000E326E30AE53EF07F07E
:100EA20055EF07F079EF07F0FF0E2D14226EFF0EBB
:100EB2002E14236EFF0E2F14246E7F0E3014256E17
:100EC2002250231024102510D8B46AEF07F06CEFDB
:100ED20007F070EF07F0010E326E79EF07F01AA0FB
:100EE20075EF07F077EF07F079EF07F06CEF07F097
:100EF2003250D8B47FEF07F081EF07F0A5EF07F08B
:100F0200010E1A26000E1B221C221D221DA08CEF90
:100F120007F08EEF07F0A5EF07F01AC022F01BC012
:100F220023F01CC024F01DC025F0253425322432C4
:100F32002332223222C01AF023C01BF024C01CF03C
:100F420025C01DF02B4A2C2A2CBEB0EF07F02C50E6
:100F520008E12B28D8A0B0EF07F0B2EF07F0BDEF01
:100F620007F0000E2C6E2B68000E1A6E000E1B6E20
:100F7200000E1C6E000E1D6E2CBECAEF07F02C5028
:100F820006E12B04D8B0C8EF07F0CAEF07F0D8EF9C
:100F920007F0000E2C6E000E2B6E000E1A6E000E65
:100FA2001B6E000E1C6E000E1D6E000E2A6E2BC0F4
:100FB20031F031A0DFEF07F0E1EF07F0E4EF07F0E7
:100FC2001C8EE5EF07F01C9ED89031301D6E9BEF12
:100FD20006F01200F00E936EF00E8A6E8150F00B46
:100FE200586EF00E5818D8A4F9EF07F0FBEF07F08F
:100FF200EFEF07F08150F00B586EF00E5818D8A49E
:1010020005EF08F007EF08F0EFEF07F04E0E016E64
:10101200EB0EE82EFED7012EFCD700F0F00E8A6E02
:101022008150F00B586EF00E5818D8B41BEF08F030
:101032001DEF08F011EF08F08150F00B586EF00E22
:101042005818D8B427EF08F029EF08F011EF08F08C
:101052004E0E016EEB0EE82EFED7012EFCD700F0ED
:101062008150F00B586EFE0E8A6E8150F00B586E56
:1010720058C056F0F00E5818D8B442EF08F044EFBA
:1010820008F056EF08F0000E576E4BEF08F0815053
:10109200F00B566EF00E5618D8A452EF08F054EF2B
:1010A20008F048EF08F0BAEF08F0FD0E8A6E8150A2
:1010B200F00B586E58C056F0F00E5818D8B464EFC2
:1010C20008F066EF08F078EF08F0010E576E6DEF4A
:1010D20008F08150F00B566EF00E5618D8A474EF3B
:1010E20008F076EF08F06AEF08F0BAEF08F0FB0EAE
:1010F2008A6E8150F00B586E58C056F0F00E581898
:10110200D8B486EF08F088EF08F09AEF08F0020EE4
:10111200576E8FEF08F08150F00B566EF00E561896
:10112200D8A496EF08F098EF08F08CEF08F0BAEF29
:1011320008F0F70E8A6E8150F00B586E58C056F0C8
:10114200F00E5818D8B4A8EF08F0AAEF08F034EF60
:1011520008F0030E576EB1EF08F08150F00B566E97
:10116200F00E5618D8A4B8EF08F0BAEF08F0AEEFB8
:1011720008F0E00E5818D8A4C1EF08F0C3EF08F049
:10118200CEEF08F05750040D460EF324D96E000E30
:10119200F420DA6EDF50FFEF08F0D00E5818D8A412
:1011A200D5EF08F0D7EF08F0E2EF08F05750040D42
:1011B200470EF324D96E000EF420DA6EDF50FFEFF3
:1011C20008F0B00E5818D8A4E9EF08F0EBEF08F0D9
:1011D200F6EF08F05750040D480EF324D96E000EB6
:1011E200F420DA6EDF50FFEF08F05750040D490E7D
:1011F200F324D96E000EF420DA6EDF501200096E6D
:101202000950D8B407EF09F009EF09F02BEF09F004
:1012120004BE10EF09F00EEF09F02BEF09F001C048
:1012220005F002C006F003C007F004C008F0051E76
:10123200061E071E081E052A000E06220722082285
:1012420005C00BF006C00CF007C00DF008C00EF090
:1012520033EF09F001C00BF002C00CF003C00DF037
:1012620004C00EF00150021003100410D8A43CEF89
:1012720009F03EEF09F048EF09F0000E016E000E92
:10128200026E000E036E000E046ED9EF09F0960E88
:101292000A6E52EF09F00A2AD8900E320D320C3241
:1012A2000B32000E0B14056E000E0C14066E000EAF
:1012B2000D14076EFE0E0E14086E05500610071070
:1012C2000810D8A467EF09F069EF09F04CEF09F0B4
:1012D20077EF09F00A2A010E0B26000E0C220D22CE
:1012E2000E22D8900E320D320C320B32000E0B143D
:1012F200056E000E0C14066E000E0D14076EFF0E26
:101302000E14086E0550061007100810D8A48CEFB2
:1013120009F08EEF09F06BEF09F096EF09F00A067B
:10132200D8900B360C360D360E360DBE9BEF09F0FB
:101332009DEF09F0A5EF09F0020E0A60A3EF09F094
:10134200A5EF09F090EF09F00AB0AAEF09F0ACEFAF
:1013520009F0ADEF09F00D9ED8900A320AC005F0EF
:10136200066A076A086A05C008F0076A066A056A1B
:1013720005500B1206500C1207500D1208500E1297
:101382000950D8B4C7EF09F0C9EF09F0D1EF09F05D
:1013920004BED0EF09F0CEEF09F0D1EF09F00E8EC6
:1013A2000BC001F00CC002F00DC003F00EC004F03F
:1013B2001200033404340A6E0A50D8A4E3EF09F091
:1013C200E5EF09F0EFEF09F0000E016E000E026E7C
:1013D200000E036E000E046E5CEF0AF001C005F011
:1013E20002C006F003C007F004C008F0200EFFEFB1
:1013F20009F0D8900832073206320532E82EFAEFA9
:1014020009F00550096E038EFF0E0116FF0E02163B
:10141200FF0E0316000E0416960E0A5E0ABE16EFA3
:101422000AF014EF0AF02CEF0AF00A50800A970F24
:10143200D8B01EEF0AF020EF0AF022EF0AF0E5EF33
:1014420009F0D89004320332023201320A3E22EF0E
:101452000AF044EF0AF01F0E0A6432EF0AF034EF8A
:101462000AF03CEF0AF0E5EF09F0D89001360236B7
:10147200033604360A060A50D8A442EF0AF044EFB3
:101482000AF036EF0AF00950D8B44AEF0AF04CEFEE
:101492000AF054EF0AF0041E031E021E016C000E35
:1014A20002220322042201C001F002C002F003C0A2
:1014B20003F004C004F01200700ED312D350FC0BE0
:1014C2000209D36E000E966E000E956E9268000EA3
:1014D200446E000E456E000E426E000E416EF19E8D
:1014E20088EC0CF0000E056E010E066E080E076EFB
:1014F200000E4DEC0CF0C00E25EC0CF0A2EC0CF042
:10150200020E456087EF0AF089EF0AF09AEF0AF0BF
:10151200EBEC07F0436E4350FDEC0BF03D0E45241F
:10152200D96EDA6A000EDA2243C0DFFF452AAEEF37
:101532000AF04450D8A4A0EF0AF0A2EF0AF0ACEFF0
:101542000AF03D0E076E000E086E6EEC0BF007C03F
:1015520041F008C042F0010E446E4404D8A4B4EF36
:101562000AF0B6EF0AF081EF0AF0CAEC0AF033C0D3
:101572003FF034C040F03FC003F040C004F041C02F
:1015820005F042C006F02FEC0BF081EF0AF000EFFD
:1015920000F0000E376E000E386E000E396E000E2F
:1015A2003A6EC282C2B2D8EF0AF0DAEF0AF0D3EF93
:1015B2000AF0C4CF3BF03C6A3B50356EC3503B6EE1
:1015C20035C03CF03BC001F03CC002F0036A046A43
:1015D200000E00EC09F001C037F002C038F003C081
:1015E20039F004C03AF0000E056E000E066EFA0ED7
:1015F200076E430E086E37C001F038C002F039C0E2
:1016020003F03AC004F009EC04F001C01AF002C081
:101612001BF003C01CF004C01DF0000E1E6EC00EB5
:101622001F6E7F0E206E440E216E1EEC06F01AC055
:1016320037F01BC038F01CC039F01DC03AF037C07B
:1016420001F038C002F039C003F03AC004F0DAEC1D
:1016520009F001C033F002C034F01200010E0C6E2A
:10166200FE0E076EFF0E086E05C009F006C00AF0F6
:101672000750092608500A220950035C0450800AC8
:101682000B6E0A50800A0B58D8A04AEF0BF04CEFB1
:101692000BF061EF0BF0020E0524076E000E062020
:1016A200086E0350075C0850800A096E0450800AD5
:1016B2000958D8B05FEF0BF061EF0BF068EF0BF059
:1016C200010E016E000EA9EC0BF06DEF0BF0010E96
:1016D200016E010EA9EC0BF01200000E0B6E000E53
:1016E2000A6E000E0D6E000E0C6E07C0D9FF08C008
:1016F200DAFFDF50096ED00E09240E6E0F6AFF0E5C
:101702000F2220EE01F00750D9260850DA22DF50CE
:10171200096ED00E09240A6E0B6AFF0E0B220EC050
:1017220001F00FC002F0000E046E0A0E036EB5EC5B
:101732000CF001C00EF002C00FF00A500E240C6E25
:101742000B500F200D6E0CC007F00DC008F01200F8
:10175200026E8D928D908D940250D8B4B3EF0BF03F
:10176200B5EF0BF0BDEF0BF00150D8A4BBEF0BF0BF
:10177200BDEF0BF0C0EF0BF08D82D4EF0BF00250F7
:10178200D8A4C6EF0BF0C8EF0BF0D3EF0BF001506B
:10179200D8A4CEEF0BF0D0EF0BF0D3EF0BF08D808F
:1017A200D4EF0BF08D841200A00EF66E190EF76EB8
:1017B200000EF86E00EE60F010EE10F00900F5CFAA
:1017C200EEFFE550E150FAE1900EF66E190EF76E5B
:1017D200000EF86E00EE46F010EE10F00900F5CFA4
:1017E200EEFFE550E150FAE1586A576A566A000E78
:1017F200F86E00015DEF0AF0026E02C001F0F00E19
:1018020001168C500F0B01108C6E8C808C8200F0B4
:101812008C92030E016E980EE82EFED7012EFCD795
:1018220002C001F0013AF00E01168C500F0B0110AC
:101832008C6E8C8200F08C92080E016ECA0EE82E1D
:10184200FED7012EFCD71200026E02C001F0F00E8C
:1018520001168C500F0B01108C6E8C908C8200F054
:101862008C92030E016E980EE82EFED7012EFCD745
:1018720002C001F0013AF00E01168C500F0B01105C
:101882008C6E8C8200F08C92080E016ECA0EE82ECD
:10189200FED7012EFCD71200086E020E086054EF2C
:1018A2000CF056EF0CF05FEF0CF005500F0B8009B7
:1018B200096E095025EC0CF066EF0CF005500F0B89
:1018C200C009096E095025EC0CF006C003F007C0F0
:1018D20004F06DEC0CF0120079EF0CF003C0F6FF8F
:1018E20004C0F7FF0800F550FDEC0BF0034A042A90
:1018F20003C0F6FF04C0F7FF0800F5500009D8A4A2
:1019020085EF0CF087EF0CF06FEF0CF01200000E79
:10191200956E270E036EF50EE82EFED7032EFCD72A
:1019220000F0020E25EC0CF0280E25EC0CF0010E56
:1019320025EC0CF00C0E25EC0CF0060E25EC0CF050
:101942001200C150F00B0E09C16ECF0EC116C30EAC
:10195200C216C050C70B1009C06EC050F80B010967
:10196200C06EC08EC280120001500302F3CF05F098
:10197200F4CF06F001500402F3500626025003028F
:10198200F350062605C001F006C002F01200313203
:10199200332F3435362A3738392D2A30232B31323A
:0E19A200334134353642373839432A30234436
:020000040020DA
:08000000FFFFFFFFFFFFFFFF00
:020000040030CA
:0E00000000091F1EFF0181FF0FC00FE00F401F
:00000001FF
