:0400000022EF07F0F4
:100800000054656D702E20416465637561646100FC
:0108100000E7
:10081200F00E936EF00E8A6E8150F00B3C6EF00E6D
:100822003C18D8A417EF04F019EF04F00DEF04F010
:100832008150F00B3C6EF00E3C18D8A423EF04F06C
:1008420025EF04F00DEF04F04E0E216EEB0EE82EB4
:10085200FED7212EFCD700F0F00E8A6E8150F00BED
:100862003C6EF00E3C18D8B439EF04F03BEF04F0C4
:100872002FEF04F08150F00B3C6EF00E3C18D8B410
:1008820045EF04F047EF04F02FEF04F04E0E216E17
:10089200EB0EE82EFED7212EFCD700F08150F00B94
:1008A2003C6EFE0E8A6E8150F00B3C6E3CC03AF0FC
:1008B200F00E3C18D8B460EF04F062EF04F074EF6D
:1008C20004F0000E3B6E69EF04F08150F00B3A6EBB
:1008D200F00E3A18D8A470EF04F072EF04F066EF4D
:1008E20004F0D8EF04F0FD0E8A6E8150F00B3C6EDE
:1008F2003CC03AF0F00E3C18D8B482EF04F084EF1A
:1009020004F096EF04F0010E3B6E8BEF04F0815081
:10091200F00B3A6EF00E3A18D8A492EF04F094EF6E
:1009220004F088EF04F0D8EF04F0FB0E8A6E8150D9
:10093200F00B3C6E3CC03AF0F00E3C18D8B4A4EF79
:1009420004F0A6EF04F0B8EF04F0020E3B6EADEF38
:1009520004F08150F00B3A6EF00E3A18D8A4B4EFBE
:1009620004F0B6EF04F0AAEF04F0D8EF04F0F70EAB
:100972008A6E8150F00B3C6E3CC03AF0F00E3C188F
:10098200D8B4C6EF04F0C8EF04F052EF04F0030E3F
:100992003B6ECFEF04F08150F00B3A6EF00E3A1836
:1009A200D8A4D6EF04F0D8EF04F0CCEF04F0E00EB8
:1009B2003C18D8A4DFEF04F0E1EF04F0ECEF04F010
:1009C2003B50040D010EF324D96E000EF420DA6EB2
:1009D200DF501DEF05F0D00E3C18D8A4F3EF04F061
:1009E200F5EF04F000EF05F03B50040D020EF32486
:1009F200D96E000EF420DA6EDF501DEF05F0B00E56
:100A02003C18D8A407EF05F009EF05F014EF05F044
:100A12003B50040D030EF324D96E000EF420DA6E5F
:100A2200DF501DEF05F03B50040D040EF324D96E88
:100A3200000EF420DA6EDF501200000E966E000EE9
:100A4200956E9268000E386E000E396E000E356E8D
:100A5200000E346E720ED36E0F0EC16EF19E08EC54
:100A620007F0000E256E010E266E080E276E000E90
:100A7200CDEC06F0C00EA5EC06F0020E396044EF94
:100A820005F046EF05F057EF05F009EC04F0376E7C
:100A920037507DEC06F0320E3924D96EDA6A000E38
:100AA200DA2237C0DFFF392A6BEF05F03850D8A4BD
:100AB2005DEF05F05FEF05F069EF05F0320E276E8E
:100AC200000E286EE8EC05F027C034F028C035F09F
:100AD200010E386E3804D8A471EF05F073EF05F0FB
:100AE2003EEF05F073EC07F03AEC07F023EC06F06A
:100AF20023EC06F023EC06F0366E23EC06F023EC32
:100B020006F0360E236E000E246E34C025F035C07A
:100B120026F09BEC05F0060E316E130E306EAE0E13
:100B2200E82EFED7302EFCD7312EFAD73EEF05F055
:100B320000EF00F0010E2E6EFE0E276EFF0E286EE5
:100B420025C029F026C02AF02750292628502A221B
:100B520023C0D9FF24C0DAFFDF502B6E2C6A295044
:100B62002B5C2C50800A2D6E2A50800A2D58D8A05A
:100B7200BDEF05F0BFEF05F0DBEF05F023C0D9FFB5
:100B820024C0DAFFDF50276E286A020E2524296E60
:100B9200000E26202A6E2750295C2A50800A2B6ECE
:100BA2002850800A2B58D8B0D9EF05F0DBEF05F0BA
:100BB200E2EF05F0010E216E000E51EC06F0E7EFB8
:100BC20005F0010E216E010E51EC06F01200000E2E
:100BD2002B6E000E2A6E000E2D6E000E2C6E27C09C
:100BE200D9FF28C0DAFFDF50296ED00E29242E6EDD
:100BF2002F6AFF0E2F2220EE01F02750D92628500F
:100C0200DA22DF50296ED00E29242A6E2B6AFF0EBB
:100C12002B222EC021F02FC022F0000E246E0A0ECD
:100C2200236E50EC07F021C02EF022C02FF02A5084
:100C32002E242C6E2B502F202D6E2CC027F02DC071
:100C420028F01200000E226E000E216E80A02CEF02
:100C520006F02EEF06F027EF06F0140EE82EFED770
:100C620080A036EF06F038EF06F03CEF06F0D880B1
:100C720022363FEF06F022502224226E80B044EF4B
:100C820006F046EF06F03FEF06F0212A070E216438
:100C92004DEF06F04FEF06F027EF06F0225012005C
:100CA200226E8D928D908D942250D8B45BEF06F017
:100CB2005DEF06F065EF06F02150D8A463EF06F071
:100CC20065EF06F068EF06F08D827CEF06F02250A9
:100CD200D8A46EEF06F070EF06F07BEF06F021501D
:100CE200D8A476EF06F078EF06F07BEF06F08D8061
:100CF2007CEF06F08D841200226E22C021F0F00EED
:100D020021168C500F0B21108C6E8C808C8200F07F
:100D12008C92030E216E980EE82EFED7212EFCD760
:100D220022C021F0213AF00E21168C500F0B211017
:100D32008C6E8C8200F08C92080E216ECA0EE82E08
:100D4200FED7212EFCD71200226E22C021F0F00E17
:100D520021168C500F0B21108C6E8C908C8200F01F
:100D62008C92030E216E980EE82EFED7212EFCD710
:100D720022C021F0213AF00E21168C500F0B2110C7
:100D82008C6E8C8200F08C92080E216ECA0EE82EB8
:100D9200FED7212EFCD71200286E020E2860D4EF57
:100DA20006F0D6EF06F0DFEF06F025500F0B8009B4
:100DB200296E2950A5EC06F0E6EF06F025500F0B40
:100DC200C009296E2950A5EC06F026C023F027C0E1
:100DD20024F0EDEC06F01200F9EF06F023C0F6FF66
:100DE20024C0F7FF0800F5507DEC06F0234A242AC0
:100DF20023C0F6FF24C0F7FF0800F5500009D8A46D
:100E020005EF07F007EF07F0EFEF06F01200000E14
:100E1200956E270E236EF50EE82EFED7232EFCD7F5
:100E220000F0020EA5EC06F0280EA5EC06F0010E6D
:100E3200A5EC06F00C0EA5EC06F0060EA5EC06F0ED
:100E42001200C60EF66E0E0EF76E000EF86E00EE73
:100E520001F010EE20F00900F5CFEEFFE550E15071
:100E6200FAE13C6A3B6A3A6A000EF86E00011EEF34
:100E720005F080B03FEF07F041EF07F03AEF07F0DF
:100E820080A046EF07F048EF07F041EF07F080B08F
:100E92004DEF07F04FEF07F048EF07F01200215037
:100EA2002302F3CF25F0F4CF26F021502402F35091
:100EB200262622502302F350262625C021F026C0E2
:100EC20022F012003132332F3435362A3738392D99
:100ED2002A30232B313233413435364237383943C5
:100EE2002A302344929089902F0E216EC00EE82E54
:100EF200FED7212EFCD789800D0EE82EFED700F0FA
:040F020092801200C7
:020000040020DA
:08000000FFFFFFFFFFFFFFFF00
:020000040030CA
:0E00000000091F1EFF8181FF0FC00FE00F409F
:00000001FF
