:04000000AEEF0EF061
:100800000054656D702E20416465637561646100FC
:100810004D676E204572726F722054656D7000488E
:10082000756D2E204164656375616461004D676E6E
:10083000204572726F722048756D00432054656DBB
:0F084000702E00202048756D2E002E25640000BC
:100850001EC036F01FC037F020C038F021C039F07C
:1008600022C03AF023C03BF024C03CF025C03DF04C
:100870003DBE3DEF04F040EF04F0010E41EF04F007
:10088000000E346E356A34503510D8B44AEF04F097
:100890004CEF04F05CEF04F03D1E3C1E3B1E3A1E84
:1008A000391E381E371E366C000E37223822392288
:1008B0003A223B223C223D22000165BF62EF04F058
:1008C00064EF04F065EF04F0669365BF72EF04F027
:1008D000655106E16405D8B070EF04F072EF04F0E2
:1008E00078EF04F0000E316E010E306E7CEF04F0F4
:1008F00064C030F065C031F062C032F063C033F0E4
:1009000034503510D8A487EF04F089EF04F090EF4D
:1009100004F066A58EEF04F090EF04F093EF04F07E
:100920003206D8A03306000E3F6E1F0E3E6E000E3C
:10093000946F17EF05F03E06D8A03F06750E3E24D3
:10094000D96E000E3F20DA6E36C001F037C002F0DB
:1009500038C003F039C004F03AC005F03BC006F0DF
:100960003CC007F03DC008F00A0E096E000E0A6E8A
:10097000000E0B6E000E0C6E000E0D6E000E0E6E55
:10098000000E0F6E000E106E46EC08F001C026F04F
:1009900002C027F003C028F004C029F005C02AF0E7
:1009A00006C02BF007C02CF008C02DF026C013F0B5
:1009B00028C014F04FEC0EF01350300FDF6E3006ED
:1009C000D8A031063206D8A0330636C001F037C0B1
:1009D00002F038C003F039C004F03AC005F03BC063
:1009E00006F03CC007F03DC008F00A0E096E000E8C
:1009F0000A6E000E0B6E000E0C6E000E0D6E000ED9
:100A00000E6E000E0F6E000E106E82EC07F001C02D
:100A100036F002C037F003C038F004C039F005C02A
:100A20003AF006C03BF007C03CF008C03DF03FBEC6
:100A300022EF05F03F5008E13E04D8A022EF05F078
:100A400024EF05F055EF05F0365037103810391007
:100A50003A103B103C103D10D8A431EF05F033EFB5
:100A600005F09BEF04F031BE40EF05F0315006E198
:100A70003004D8B03EEF05F040EF05F09BEF04F0F6
:100A800033BE4BEF05F0335008E13204D8A04BEFF2
:100A900005F04DEF05F055EF05F0000166B353EF9B
:100AA00005F055EF05F09BEF04F034503510D8A455
:100AB0005CEF05F05EEF05F066EF05F0000166A55E
:100AC00064EF05F066EF05F084EF05F03E06D8A070
:100AD0003F0634503510D8A470EF05F072EF05F0E2
:100AE00078EF05F0000E2F6E2B0E2E6E7CEF05F0CA
:100AF000000E2F6E2D0E2E6E750E3E24D96E000E3A
:100B00003F20DA6E2EC0DFFF1CC011F01DC012F0B6
:100B1000750E3E24136E000E3F20146E32C015F089
:100B200033C016F082EC0AF011C01CF012C01DF0A8
:100B30001200F00E936EF00E8A6E8150F00B0001E1
:100B4000746FF00E7419D8A4A8EF05F0AAEF05F0A1
:100B50009DEF05F08150F00B746FF00E7419D8A45E
:100B6000B4EF05F0B6EF05F09DEF05F04E0E016E07
:100B7000EB0EE82EFED7012EFCD700F0F00E8A6EA9
:100B80008150F00B0001746FF00E7419D8B4CBEFE4
:100B900005F0CDEF05F0C0EF05F08150F00B746F5C
:100BA000F00E7419D8B4D7EF05F0D9EF05F0C0EF07
:100BB00005F04E0E016EEB0EE82EFED7012EFCD78F
:100BC00000F08150F00B0001746FFE0E8A6E8150B0
:100BD000F00B746F74C072F0F00E7419D8B4F3EFA8
:100BE00005F0F5EF05F007EF06F0000E736FFCEF70
:100BF00005F08150F00B726FF00E7219D8A403EF5C
:100C000006F005EF06F0F9EF05F06DEF06F0FD0ECA
:100C10008A6E8150F00B746F74C072F0F00E74190C
:100C2000D8B415EF06F017EF06F029EF06F0010E25
:100C3000736F1EEF06F08150F00B726FF00E721999
:100C4000D8A425EF06F027EF06F01BEF06F06DEFB6
:100C500006F0FB0E8A6E8150F00B746F74C072F058
:100C6000F00E7419D8B437EF06F039EF06F04BEFF9
:100C700006F0020E736F40EF06F08150F00B726FBA
:100C8000F00E7219D8A447EF06F049EF06F03DEFD9
:100C900006F06DEF06F0F70E8A6E8150F00B746F60
:100CA00074C072F0F00E7419D8B459EF06F05BEF0F
:100CB00006F0E5EF05F0030E736F62EF06F081506A
:100CC000F00B726FF00E7219D8A469EF06F06BEF9B
:100CD00006F05FEF06F06DEF06F0E00E7419D8A491
:100CE00074EF06F076EF06F081EF06F07351030D16
:100CF000A70EF324D96E000EF420DA6EDF50A7EFB2
:100D000006F0D00E7419D8A488EF06F08AEF06F02A
:100D100095EF06F07351030DA80EF324D96E000E63
:100D2000F420DA6EDF50A7EF06F0B00E7419D8A4E5
:100D30009CEF06F09EEF06F06DEF06F07351030D89
:100D4000A90EF324D96E000EF420DA6EDF501200E3
:100D500042C0D9FF43C0DAFFDECFF6FFDDCFF7FF99
:100D60000800F550250AD8A4B8EF06F0BAEF06F04F
:100D700066EF07F042C0D9FF43C0DAFFDE2A000E5B
:100D8000DD22000E0001636F000E626F62C066F02C
:100D900063C067F06469656942C0D9FF43C0DAFF88
:100DA000DECFF6FFDDCFF7FF0800F550640AD8B4B8
:100DB000DCEF06F0DEEF06F0F0EF06F042C0D9FF00
:100DC00043C0DAFFDECFF6FFDDCFF7FF0800F550B6
:100DD000690AD8A4EEEF06F0F0EF06F030EF07F066
:100DE00042C0D9FF43C0DAFFDE2A000EDD2244C034
:100DF000D9FF45C0DAFFDFCF46F0020EDE26DFCF97
:100E000047F0000EDD2246C0D9FF47C0DAFFDECF33
:100E100048F0DDCF49F0000E49BEFF0E4A6E4B6E22
:100E20004C6E4D6E4E6E4F6E40C01CF041C01DF0BA
:100E300048C01EF049C01FF04AC020F04BC021F04E
:100E40004CC022F04DC023F04EC024F04FC025F01E
:100E500028EC04F01CC040F01DC041F081EF07F009
:100E600042C0D9FF43C0DAFFDECFF6FFDDCFF7FF88
:100E70000800F550250AD8A440EF07F042EF07F02C
:100E800059EF07F042C0D9FF43C0DAFFDE2A000E57
:100E9000DD22000E026E250E016E40C003F041C03F
:100EA00004F01DEC0AF0000E416E010E406E81EF61
:100EB00007F042C0D9FF43C0DAFFDE2A000EDD2270
:100EC000000E416E000E406E81EF07F042C0D9FF68
:100ED00043C0DAFFDECFF6FFDDCFF7FF0800F550A5
:100EE000016E026A40C003F041C004F01DEC0AF03C
:100EF00042C0D9FF43C0DAFFDE2A000EDD2253EFE5
:100F000007F01200000E126E10BE8BEF07F089EF93
:100F100007F09DEF07F0101E0F1E0E1E0D1E0C1E7B
:100F20000B1E0A1E096C000E0A220B220C220D2237
:100F30000E220F221022010E126E08BEA4EF07F03F
:100F4000A2EF07F0B6EF07F0081E071E061E051EEB
:100F5000041E031E021E016C000E02220322042244
:100F60000522062207220822010E121A20EE13F093
:100F7000070EDE6AE806FDE209500A100B100C109D
:100F80000D100E100F101010D8B4C9EF07F0CBEFF2
:100F900007F01DEF08F0010E116ED9EF07F0D890A1
:100FA00009360A360B360C360D360E360F3610362D
:100FB000112A10AEDEEF07F0E0EF07F0CFEF07F0F9
:100FC000D8901336143615361636173618361936A5
:100FD0001A360950015C0A5002580B5003580C5045
:100FE00004580D5005580E5006580F500758105011
:100FF0000858D8A0FEEF07F000EF08F011EF08F056
:101000000950015E0A50025A0B50035A0C50045A00
:101010000D50055A0E50065A0F50075A1050085AD4
:101020001380D89010320F320E320D320C320B3248
:101030000A320932112EE0EF07F01250D8B423EF34
:1010400008F025EF08F035EF08F01A1E191E181EDB
:10105000171E161E151E141E136C000E14221522C8
:1010600016221722182219221A2213C001F014C0C6
:1010700002F015C003F016C004F017C005F018C048
:1010800006F019C007F01AC008F01200000E126E28
:1010900008BE4FEF08F04DEF08F061EF08F0081EB2
:1010A000071E061E051E041E031E021E016C000EF6
:1010B0000222032204220522062207220822010E10
:1010C000126E10BE68EF08F066EF08F078EF08F0D7
:1010D000101E0F1E0E1E0D1E0C1E0B1E0A1E096C6E
:1010E000000E0A220B220C220D220E220F221022A9
:1010F00009500A100B100C100D100E100F101010CC
:10110000D8B485EF08F087EF08F0CFEF08F0010EB4
:10111000116E95EF08F0D89009360A360B360C366A
:101120000D360E360F361036112A10AE9AEF08F033
:101130009CEF08F08BEF08F00950015C0A50025850
:101140000B5003580C5004580D5005580E500658BB
:101150000F50075810500858D8A0B1EF08F0B3EF5F
:1011600008F0C3EF08F00950015E0A50025A0B5014
:10117000035A0C50045A0D50055A0E50065A0F507F
:10118000075A1050085AD89010320F320E320D32D2
:101190000C320B320A320932112E9CEF08F0125039
:1011A000D8B4D5EF08F0D7EF08F0E7EF08F0081E45
:1011B000071E061E051E041E031E021E016C000EE5
:1011C000022203220422052206220722082201C04D
:1011D00001F002C002F003C003F004C004F005C037
:1011E00005F006C006F007C007F008C008F01200BE
:1011F000720ED36E65EC0FF05CEC0FF0E4EC0EF0C9
:1012000077EC0FF04CEC0FF00001B305D8A40BEF16
:1012100009F00DEF09F042EF09F0A30E156E000E74
:10122000166EA10E176E000E186EA60E196E000E29
:101230001A6EA50E1B6E000E1C6EE5EC0AF0A30ED6
:10124000076E000E086E50EC0CF007C06AF008C084
:101250006BF0A10E076E000E086E50EC0CF007C08C
:1012600068F008C069F0D00E0001A6256E6F6F6BA4
:10127000FF0E6F23D00EA5256C6F6D6BFF0E6D23D7
:10128000000EB36F9F0E036E000E046E8FEC0EF017
:101290009F0E036E000E046EA00E056E000E066E0D
:1012A0006AC007F06BC008F068C009F069C00AF0B6
:1012B0006EC00BF06FC00CF06CC00DF06DC00EF086
:1012C0009FEC09F0A00E016E000E026E68C003F0E4
:1012D00069C004F06CC005F06DC006F09FEC0BF027
:1012E0009F0E016E000E026E6AC003F06BC004F028
:1012F0006EC005F06FC006F042EC0BF0950E0001D9
:10130000BC6F000EBD6FA0C0BEF0C3EC0CF0950E1C
:101310000001BC6F000EBD6F9FC0BEF08BEC0CF0E7
:10132000060E5F6E130E5E6EAE0EE82EFED75E2EBC
:10133000FCD75F2EFAD704EF09F000EF00F0010EA2
:10134000146E010E156E0B50075C0F6E0C50085892
:10135000106E03C0D9FF04C0DAFFDF50116E126AAD
:101360000F50115C1250800A136E1050800A1358EF
:10137000D8A0BDEF09F0BFEF09F0DBEF09F003C023
:10138000D9FF04C0DAFFDF500F6E106A0B5007243C
:10139000116E0C500820126E0F50115C1250800A12
:1013A000136E1050800A1358D8B0D9EF09F0DBEF54
:1013B00009F0DDEF09F0000E146E0D50095C0F6EA0
:1013C0000E500A58106E05C0D9FF06C0DAFFDF5074
:1013D000116E126A0F50115C1250800A136E105079
:1013E000800A1358D8A0F7EF09F0F9EF09F015EFCC
:1013F0000AF005C0D9FF06C0DAFFDF500F6E106A91
:101400000D500924116E0E500A20126E0F50115CFF
:101410001250800A136E1050800A1358D8B013EF80
:101420000AF015EF0AF017EF0AF0000E156E15C05E
:1014300001F0145089EC0DF0120003500410D8B4E0
:1014400024EF0AF026EF0AF02FEF0AF00350041001
:10145000D8A42DEF0AF02FEF0AF034EF0AF0015074
:101460007DEC0FF081EF0AF020EE04F00350D92656
:101470000450DA22DE50DE10D8B441EF0AF043EF18
:101480000AF05EEF0AF020EE04F00350D926045073
:10149000DA2210EE02F00350E1260450E222DE5080
:1014A000E65CE650800A096EDE50800A0958D8B022
:1014B0005CEF0AF05EEF0AF081EF0AF020EE02F036
:1014C0000350D9260450DA22DECF05F0DDCF06F036
:1014D00003C0D9FF04C0DAFFDECF07F0DDCF08F08C
:1014E00005500724D96E06500820DA6E01C0DFFFD0
:1014F00020EE02F00350D9260450DA22DE2A000E34
:10150000DD221200000166A188EF0AF08AEF0AF0DE
:1015100094EF0AF013C00AF014C00BF011C00CF0E5
:1015200012C00DF02DEC0EF016BE99EF0AF09BEFF5
:101530000AF0A1EF0AF015C01AF016C01BF0A5EFD3
:101540000AF0000E1B6E000E1A6E000E196E000ED1
:10155000186EB7EF0AF0000E026E200E016E11C079
:1015600003F012C004F01DEC0AF0184A192A1A50B0
:10157000185C1950800A176E1B50800A1758D8A0A3
:10158000C4EF0AF0C6EF0AF0ABEF0AF0000166B153
:10159000CCEF0AF0CEEF0AF0D8EF0AF013C00AF051
:1015A00014C00BF011C00CF012C00DF02DEC0EF0B9
:1015B00013C001F014C002F0C9EC0EF01A5001245F
:1015C000116E1B500220126E1200010E0A6E080EE0
:1015D0000B6E15C00CF016C00DF0000E0F6E020E53
:1015E0000E6EFCEC0BF0020E1E6E040E1D6EBA0E9B
:1015F000E82EFED71D2EFCD71E2EFAD700D0100ED7
:101600000A6E080E0B6E19C00CF01AC00DF0000E19
:101610000F6E010E0E6EFCEC0BF0020E1E6E040E31
:101620001D6EBA0EE82EFED71D2EFCD71E2EFAD741
:1016300000D01F0E0A6E080E0B6E17C00CF018C0FB
:101640000DF0000E0F6E020E0E6EFCEC0BF0020E93
:101650001E6E040E1D6EBA0EE82EFED71D2EFCD790
:101660001E2EFAD700D02D0E0A6E080E0B6E1BC070
:101670000CF01CC00DF0000E0F6E010E0E6EFCEC97
:101680000BF0120001C0D9FF02C0DAFFDF50076E75
:10169000086A05500324096E065004200A6E07509C
:1016A000095C0A50800A0B6E0850800A0B58D8B0AB
:1016B0005CEF0BF05EEF0BF06EEF0BF000017005CE
:1016C000D8B465EF0BF067EF0BF09EEF0BF06BEC0F
:1016D0000FF0010E0001716F9EEF0BF00550035CDF
:1016E000076E06500458086E01C0D9FF02C0DAFF29
:1016F000DF50096E0A6A0750095C0A50800A0B6EB7
:101700000850800A0B58D8B088EF0BF08AEF0BF026
:101710008EEF0BF079EC0FF09EEF0BF07BEC0FF0FF
:1017200000017005D8B497EF0BF099EF0BF09EEF26
:101730000BF071EC0FF0000E0001716F12000550FC
:10174000035C076E06500458086E01C0D9FF02C042
:10175000DAFFDF50096E0A6A0750095C0A50800AF6
:101760000B6E0850800A0B58D8B0B9EF0BF0BBEFE6
:101770000BF0BFEF0BF06EEC0FF0FBEF0BF001C0C6
:10178000D9FF02C0DAFFDF50076E086A0550032454
:10179000096E065004200A6E0750095C0A50800A40
:1017A0000B6E0850800A0B58D8B0D9EF0BF0DBEF66
:1017B0000BF0EBEF0BF000017105D8B4E2EF0BF08A
:1017C000E4EF0BF0FBEF0BF06BEC0FF0010E000100
:1017D000706FFBEF0BF074EC0FF000017105D8B4E3
:1017E000F4EF0BF0F6EF0BF0FBEF0BF071EC0FF0FA
:1017F000000E0001706F120014EC0FF0000E056E69
:101800000AC006F00BC007F0000E6FEC0EF0C00E21
:1018100005EC0EF0000E136E000E126E32EF0CF09F
:1018200099EC05F0146E2A0E1418D8B41AEF0CF0C7
:101830001CEF0CF010EF0CF0230E1418D8B423EFAB
:101840000CF025EF0CF010EF0CF01450DDEC0DF067
:1018500012500C24D96E13500D20DA6E14C0DFFF25
:10186000124A132A0E50125C1350800A106E0F5049
:10187000800A1058D8A03FEF0CF041EF0CF010EFA9
:101880000CF0020E116E040E106EBA0EE82EFED78A
:10189000102EFCD7112EFAD700D014EC0FF0120046
:1018A000000E0B6E000E0A6E000E0D6E000E0C6E1A
:1018B00007C0D9FF08C0DAFFDF50096ED00E092437
:1018C0000E6E0F6AFF0E0F2220EE01F00750D92690
:1018D0000850DA22DF50096ED00E09240A6E0B6A16
:1018E000FF0E0B220EC001F00FC002F0000E046EBE
:1018F0000A0E036E29EC0FF001C00EF002C00FF0CB
:101900000A500E240C6E0B500F200D6E0CC007F009
:101910000DC008F01200BCC058F0BDC059F04B0E0D
:101920005A6E080E5B6EBEC05CF05D6AB4EC0DF0E2
:10193000000E056EBCC006F0BDC007F0020E6FECD5
:101940000EF0BCC058F0BDC059F04A0E5A6E080ED9
:101950005B6E000E5D6E000E5C6EB4EC0DF0DF0E83
:10196000DDEC0DF0BCC058F0BDC059F03B0E5A6E16
:10197000080E5B6EB4EC0DF0BCC003F0BDC004F00B
:101980002CEC0DF01200BCC058F0BDC059F04B0E4D
:101990005A6E080E5B6EBEC05CF05D6AB4EC0DF072
:1019A000000E056EBCC006F0BDC007F0000E6FEC67
:1019B0000EF0BCC058F0BDC059F04A0E5A6E080E69
:1019C0005B6E000E5D6E000E5C6EB4EC0DF0250ECD
:1019D000DDEC0DF0BCC058F0BDC059F0430E5A6E9E
:1019E000080E5B6EB4EC0DF0BCC003F0BDC004F09B
:1019F0002CEC0DF0120052C056F053C057F0000E00
:101A00000001616F000E606F19EF0DF050C040F0E3
:101A100051C041F0560E426E000E436E54C044F069
:101A200055C045F0A8EC06F0405000016027415039
:101A3000612356C0F6FF57C0F7FF0800F5500009B4
:101A4000D8A425EF0DF027EF0DF006EF0DF060C0E4
:101A500050F061C051F0120042EF0DF003C0F6FFEC
:101A600004C0F7FFF86A070EF76403D00800F550CA
:101A700005D0F6CFE1FFF7CFE2FFE750DDEC0DF048
:101A8000034A042A03C0F6FF04C0F7FFF86A070EF2
:101A9000F76403D00800F55005D0F6CFE1FFF7CF8B
:101AA000E2FFE7500009D8A458EF0DF05AEF0DF00F
:101AB0002EEF0DF01200000E026E000E016E80A0DF
:101AC00064EF0DF066EF0DF05FEF0DF0140EE82EF1
:101AD000FED780A06EEF0DF070EF0DF074EF0DF0FB
:101AE000D880023677EF0DF002500224026E80B0EB
:101AF0007CEF0DF07EEF0DF077EF0DF0012A070E71
:101B0000016485EF0DF087EF0DF05FEF0DF00250EF
:101B10001200026E61EC0FF00250D8A492EF0DF0AB
:101B200094EF0DF09FEF0DF00150D8A49AEF0DF057
:101B30009CEF0DF09FEF0DF08D80B3EF0DF0025094
:101B4000D8B4A5EF0DF0A7EF0DF0AFEF0DF00150F9
:101B5000D8A4ADEF0DF0AFEF0DF0B2EF0DF08D8228
:101B6000B3EF0DF08D8412005C0E0001B46F000E17
:101B7000B56F58C0B6F059C0B7F0000EB96F000E7F
:101B8000B86F000EBB6F000EBA6FB60E506E000E2F
:101B9000516E5AC052F05BC053F0B40E546E000E3A
:101BA000556EFBEC0CF00001B8515824D96EB951B8
:101BB0005920DA6E000EDF6E1200026E02C001F0D4
:101BC000F00E01168C500F0B01108C6E8C808C82E5
:101BD00000F08C92030E016E980EE82EFED7012EB7
:101BE000FCD702C001F0013AF00E01168C500F0B29
:101BF00001108C6E8C8200F08C92080E016ECA0E61
:101C0000E82EFED7012EFCD71200026E02C001F0B2
:101C1000F00E01168C500F0B01108C6E8C908C8284
:101C200000F08C92030E016E980EE82EFED7012E66
:101C3000FCD702C001F0013AF00E01168C500F0BD8
:101C400001108C6E8C8200F08C92080E016ECA0E10
:101C5000E82EFED7012EFCD71200000E106E000EEB
:101C60000F6E3EEF0EF00EC001F0026A0CC003F0E2
:101C70000DC004F01DEC0AF00F4A102A0F500A2480
:101C8000D96E10500B20DA6EDF500E6E0E50D8A4B5
:101C90004CEF0EF04EEF0EF033EF0EF0120014BECC
:101CA0005CEF0EF0145006E11304D8B05AEF0EF0BA
:101CB0005CEF0EF06AEF0EF013C015F014C016F0D2
:101CC000151E161E154A162A15C013F016C014F05C
:101CD0006EEF0EF013C013F014C014F01200086E73
:101CE000020E086076EF0EF078EF0EF081EF0EF046
:101CF00005500F0B8009096E095005EC0EF088EFB6
:101D00000EF005500F0BC009096E095005EC0EF0DE
:101D100006C003F007C004F02CEC0DF012003CEC00
:101D20000FF0FEEC0EF05BEC0DF0056E5BEC0DF0D1
:101D30005BEC0DF0066E5BEC0DF05BEC0DF003C0A0
:101D4000D9FF04C0DAFF06C0DFFF20EE01F0035028
:101D5000D9260450DA2205C0DFFF1200AA0EF66E63
:101D60001E0EF76E000EF86E00EEA7F010EE0DF0EE
:101D70000900F5CFEEFFE550E150FAE100EE60F02A
:101D8000470EEE6AE806FDE1000EF86E0001F8EF7E
:101D900008F001C003F002C004F0D1EF0EF0014AD8
:101DA000022A01C0D9FF02C0DAFFDF50D8A4DBEF5E
:101DB0000EF0DDEF0EF0CFEF0EF00350015C016E80
:101DC00004500258026E120068EC0FF0270E036EEA
:101DD000F50EE82EFED7032EFCD700F0020E05EC20
:101DE0000EF0280E05EC0EF0010E05EC0EF00C0EB8
:101DF00005EC0EF0060E05EC0EF0120080B003EFBD
:101E00000FF005EF0FF0FEEF0EF080A00AEF0FF0DD
:101E10000CEF0FF005EF0FF080B011EF0FF013EFA4
:101E20000FF00CEF0FF01200010E05EC0EF0080E93
:101E3000036ECA0EE82EFED7032EFCD7800E05ECEB
:101E40000EF0030E036E980EE82EFED7032EFCD77D
:101E5000120001500302F3CF05F0F4CF06F0015059
:101E60000402F350062602500302F350062605C072
:101E700001F006C002F01200929089902F0E016EC0
:101E8000C00EE82EFED7012EFCD789800D0EE82E5D
:101E9000FED700F09280120074EC0FF061EC0FF0AE
:101EA0007BEC0FF071EC0FF0120031323334353629
:071EB0003738392A30230105
:101EB800000E946E000E966E12008D928D908D9489
:101EC80012000F0EC16E1200000E956E12008B8468
:101ED8008B8C12008B808B8212008B948B9C12004F
:101EE8008B908B921200F19E12008B8E12008B9EAB
:041EF80012001200C2
:020000040020DA
:08000000FFFFFFFFFFFFFFFF00
:020000040030CA
:0E00000000091F1EFF8181FF0FC00FE00F409F
:00000001FF
