:040000003DEF06F0DA
:100800000054656D702E2064696769746164613A93
:100810000054656D702E20416465637561646100EC
:0108200000D7
:10082200F00E936EF00E8A6E8150F00B326EF00E67
:100832003218D8A41FEF04F021EF04F015EF04F0F2
:100842008150F00B326EF00E3218D8A42BEF04F068
:100852002DEF04F015EF04F04E0E216EEB0EE82E94
:10086200FED7212EFCD700F0F00E8A6E8150F00BDD
:10087200326EF00E3218D8B441EF04F043EF04F0B8
:1008820037EF04F08150F00B326EF00E3218D8B40C
:100892004DEF04F04FEF04F037EF04F04E0E216EEF
:1008A200EB0EE82EFED7212EFCD700F08150F00B84
:1008B200326EFE0E8A6E8150F00B326E32C030F014
:1008C200F00E3218D8B468EF04F06AEF04F07CEF4F
:1008D20004F0000E316E71EF04F08150F00B306EB7
:1008E200F00E3018D8A478EF04F07AEF04F06EEF2F
:1008F20004F0E0EF04F0FD0E8A6E8150F00B326ED0
:1009020032C030F0F00E3218D8B48AEF04F08CEF17
:1009120004F09EEF04F0010E316E93EF04F081506B
:10092200F00B306EF00E3018D8A49AEF04F09CEF62
:1009320004F090EF04F0E0EF04F0FB0E8A6E8150B9
:10094200F00B326E32C030F0F00E3218D8B4ACEF89
:1009520004F0AEEF04F0C0EF04F0020E316EB5EF1A
:1009620004F08150F00B306EF00E3018D8A4BCEFBA
:1009720004F0BEEF04F0B2EF04F0E0EF04F0F70E83
:100982008A6E8150F00B326E32C030F0F00E3218A7
:10099200D8B4CEEF04F0D0EF04F05AEF04F0030E17
:1009A200316ED7EF04F08150F00B306EF00E30183C
:1009B200D8A4DEEF04F0E0EF04F0D4EF04F0E00E90
:1009C2003218D8A4E7EF04F0E9EF04F0F4EF04F0F2
:1009D2003150040D010EF324D96E000EF420DA6EAC
:1009E200DF5025EF05F0D00E3218D8A4FBEF04F04B
:1009F200FDEF04F008EF05F03150040D020EF32470
:100A0200D96E000EF420DA6EDF5025EF05F0B00E3D
:100A12003218D8A40FEF05F011EF05F01CEF05F026
:100A22003150040D030EF324D96E000EF420DA6E59
:100A3200DF5025EF05F03150040D040EF324D96E7A
:100A4200000EF420DA6EDF501200000E2D6E700ED2
:100A5200D36E000E966E000E2F6EF19E23EC06F002
:100A6200000E256E110E266E080E276E000ECAECC1
:100A720005F0C00E7AEC05F0030E2F6043EF05F08F
:100A820045EF05F058EF05F069EC06F011EC04F0C3
:100A92002E6E2E50A2EC05F02A0E2F24D96EDA6AA1
:100AA200000EDA222EC0DFFF2F2A3DEF05F02D5077
:100AB200D8A45EEF05F060EF05F03DEF05F065ECC0
:100AC20006F0000E256E010E266E080E276E000E31
:100AD200CAEC05F0C00E7AEC05F02A0E236E000E69
:100AE200246EEAEC05F0010E2D6E3DEF05F000EFED
:100AF20000F0226E22C021F0F00E21168C500F0B56
:100B020021108C6E8C908C8200F08C92030E216EE0
:100B1200980EE82EFED7212EFCD722C021F0213AD2
:100B2200F00E21168C500F0B21108C6E8C8200F06F
:100B32008C92080E216ECA0EE82EFED7212EFCD70B
:100B42001200226E22C021F0F00E21168C500F0BE3
:100B520021108C6E8C808C8200F08C92030E216EA0
:100B6200980EE82EFED7212EFCD722C021F0213A82
:100B7200F00E21168C500F0B21108C6E8C8200F01F
:100B82008C92080E216ECA0EE82EFED7212EFCD7BB
:100B92001200286E020E2860D1EF05F0D3EF05F0A7
:100BA200DCEF05F025500F0B8009296E29507AECF5
:100BB20005F0E3EF05F025500F0BC009296E29500F
:100BC2007AEC05F026C023F027C024F008EC06F0EA
:100BD2001200000E266E000E256E25502324D96EBB
:100BE20026502420DA6EDF50A2EC05F0254A262A90
:100BF20026BE05EF06F0265009E1030E255CD8A0BB
:100C020005EF06F007EF06F0EEEF05F0120014EF25
:100C120006F023C0F6FF24C0F7FF0800F550A2EC4F
:100C220005F0234A242A23C0F6FF24C0F7FF080058
:100C3200F5500009D8A420EF06F022EF06F00AEFE3
:100C420006F01200000E956E270E236EF50EE82EAA
:100C5200FED7232EFCD700F0020E7AEC05F0280E08
:100C62007AEC05F0010E7AEC05F00C0E7AEC05F048
:100C7200060E7AEC05F01200AA0EF66E0C0EF76E56
:100C8200000EF86E00EE01F010EE20F00900F5CF34
:100C9200EEFFE550E150FAE1326A316A306A000E45
:100CA200F86E000126EF05F03132332F3435362A43
:100CB2003738392D2A30232B3132334134353642FD
:100CC200373839432A302344010E7AEC05F01200FA
:040CD2008D841200FB
:020000040020DA
:08000000FFFFFFFFFFFFFFFF00
:020000040030CA
:0E00000000091F1EFF0181FF0FC00FE00F401F
:00000001FF
